:020000040800F2
:1000000000C00020D5300008212B0008292B000853
:10001000312B0008392B0008412B0008000000009C
:10002000000000000000000000000000F19E000839
:10003000492B000800000000D1A0000819A1000809
:100040001D3100081D3100081D3100081D31000858
:100050001D3100081D3100081D3100081D31000848
:100060001D3100081D3100081D310008552B000806
:100070001D3100081D3100081D310008692B0008E2
:100080007D2B00081D3100081D3100081D310008BE
:100090001D3100081D3100081D3100081D31000808
:1000A0001D3100081D3100081D3100081D310008F8
:1000B000912B00081D3100081D3100081D3100087A
:1000C0001D3100081D3100081D3100081D310008D8
:1000D0001D3100081D3100081D3100081D310008C8
:1000E0001D3100081D3100081D3100081D310008B8
:1000F0001D3100081D3100081D3100081D310008A8
:100100001D3100081D3100081D3100081D31000897
:100110001D3100081D310008A52B00081D31000805
:100120001D3100081D3100081D3100081D31000877
:1001300000000000000000000000000000000000BF
:1001400000000000000000000000000000000000AF
:10015000000000000000000000000000000000009F
:10016000000000000000000000000000000000008F
:10017000000000000000000000000000000000007F
:10018000000000000000000000000000000000006F
:10019000000000000000000000000000000000005F
:1001A000000000000000000000000000000000004F
:1001B000000000000000000000000000000000003F
:1001C000000000000000000000000000000000002F
:1001D000000000000000000000000000000000001F
:0401E0005FF8E0F1F3
:1001F00010B5054C237833B9044B13B10448AFF361
:1002000000800123237010BD2002002000000000A8
:1002100060D6000808B5034B1BB103490348AFF390
:10022000008008BD000000002402002060D6000805
:10023000034613F8012B002AFBD1181A0138704726
:1002400081F0004102E000BF83F0004330B54FEA87
:1002500041044FEA430594EA050F08BF90EA020FF4
:100260001FBF54EA000C55EA020C7FEA645C7FEA87
:10027000655C00F0E2804FEA5454D4EB5555B8BFAA
:100280006D420CDD2C4480EA020281EA030382EA1B
:10029000000083EA010180EA020281EA0303362DAD
:1002A00088BF30BD11F0004F4FEA01314FF4801C80
:1002B0004CEA113102D0404261EB410113F0004F92
:1002C0004FEA03334CEA133302D0524263EB430349
:1002D00094EA050F00F0A780A4F10104D5F1200EE7
:1002E0000DDB02FA0EFC22FA05F2801841F1000142
:1002F00003FA0EF2801843FA05F359410EE0A5F116
:1003000020050EF1200E012A03FA0EFC28BF4CF046
:10031000020C43FA05F3C01851EBE37101F00045FC
:1003200007D54FF0000EDCF1000C7EEB00006EEB09
:100330000101B1F5801F1BD3B1F5001F0CD3490893
:100340005FEA30004FEA3C0C04F101044FEA4452EA
:1003500012F5800F80F09A80BCF1004F08BF5FEA71
:10036000500C50F1000041EB045141EA050130BD51
:100370005FEA4C0C404141EB0101013C28BFB1F563
:10038000801FE9D291F0000F04BF01460020B1FAAE
:1003900081F308BF2033A3F10B03B3F120020CDA81
:1003A0000C3208DD02F1140CC2F10C0201FA0CF05F
:1003B00021FA02F10CE002F11402D8BFC2F1200CC4
:1003C00001FA02F120FA0CFCDCBF41EA0C0190407A
:1003D000E41AA2BF01EB0451294330BD6FEA0404C3
:1003E0001F3C1CDA0C340EDC04F11404C4F12002AE
:1003F00020FA04F001FA02F340EA030021FA04F3C0
:1004000045EA030130BDC4F10C04C4F1200220FA16
:1004100002F001FA04F340EA0300294630BD21FA54
:1004200004F0294630BD94F0000F83F4801306BF1A
:1004300081F480110134013D4EE77FEA645C18BF0E
:100440007FEA655C29D094EA050F08BF90EA020FA5
:1004500005D054EA000C04BF1946104630BD91EA9D
:10046000030F1EBF0021002030BD5FEA545C05D1A0
:100470004000494128BF41F0004130BD14F58004DF
:100480003CBF01F5801130BD01F0004545F0FE4153
:1004900041F470014FF0000030BD7FEA645C1ABF88
:1004A000194610467FEA655C1CBF0B46024650EABF
:1004B000013406BF52EA033591EA030F41F40021EB
:1004C00030BD00BF90F0000F04BF0021704730B571
:1004D0004FF4806404F132044FF000054FF0000146
:1004E00050E700BF90F0000F04BF0021704730B507
:1004F0004FF4806404F1320410F0004548BF4042DC
:100500004FF000013EE700BF42004FEAE2014FEA30
:1005100031014FEA02701FBF12F07F4393F07F4F0B
:1005200081F06051704732F07F4208BF704793F00E
:100530007F4F04BF41F40021704730B54FF4607421
:1005400001F0004521F000411CE700BF50EA010224
:1005500008BF704730B54FF000050AE050EA0102CD
:1005600008BF704730B511F0004502D5404261EB3D
:1005700041014FF4806404F132045FEA915C3FF47E
:10058000D8AE4FF003025FEADC0C18BF03325FEA1B
:10059000DC0C18BF033202EBDC02C2F1200300FACC
:1005A00003FC20FA02F001FA03FE40EA0E0021FAF1
:1005B00002F11444BDE600BF70B54FF0FF0C4CF4DF
:1005C000E06C1CEA11541DBF1CEA135594EA0C0F91
:1005D00095EA0C0F00F0DEF82C4481EA030621EACC
:1005E0004C5123EA4C5350EA013518BF52EA033507
:1005F00041F4801143F4801338D0A0FB02CE4FF0B9
:100600000005E1FB02E506F00042E0FB03E54FF0E8
:100610000006E1FB03569CF0000F18BF4EF0010EE0
:10062000A4F1FF04B6F5007F64F5407404D25FEADC
:100630004E0E6D4146EB060642EAC62141EA55518F
:100640004FEAC52040EA5E504FEACE2EB4F1FD0CD1
:1006500088BFBCF5E06F1ED8BEF1004F08BF5FEA4F
:10066000500E50F1000041EB045170BD06F0004601
:1006700046EA010140EA020081EA0301B4EB5C04AE
:10068000C2BFD4EB0C0541EA045170BD41F48011A6
:100690004FF0000E013C00F3AB8014F1360FDEBFCB
:1006A000002001F0004170BDC4F10004203C35DAA7
:1006B0000C341BDC04F11404C4F1200500FA05F32A
:1006C00020FA04F001FA05F240EA020001F00042CB
:1006D00021F0004110EBD37021FA04F642EB060141
:1006E0005EEA430E08BF20EAD37070BDC4F10C046B
:1006F000C4F1200500FA04F320FA05F001FA04F22F
:1007000040EA020001F0004110EBD37041F100011A
:100710005EEA430E08BF20EAD37070BDC4F1200525
:1007200000FA05F24EEA020E20FA04F301FA05F28D
:1007300043EA020321FA04F001F0004121FA04F235
:1007400020EA020000EBD3705EEA430E08BF20EA05
:10075000D37070BD94F0000F0FD101F0004640003F
:1007600041EB010111F4801F08BF013CF7D041EAC1
:10077000060195F0000F18BF704703F000465200C5
:1007800043EB030313F4801F08BF013DF7D043EA96
:100790000603704794EA0C0F0CEA135518BF95EA4C
:1007A0000C0F0CD050EA410618BF52EA4306D1D1D3
:1007B00081EA030101F000414FF0000070BD50EAF2
:1007C000410606BF1046194652EA430619D094EA7C
:1007D0000C0F02D150EA013613D195EA0C0F05D166
:1007E00052EA03361CBF104619460AD181EA0301BA
:1007F00001F0004141F0FE4141F470014FF0000072
:1008000070BD41F0FE4141F4780170BD70B54FF00C
:10081000FF0C4CF4E06C1CEA11541DBF1CEA13558C
:1008200094EA0C0F95EA0C0F00F0A7F8A4EB05046E
:1008300081EA030E52EA03354FEA013100F0888065
:100840004FEA03334FF0805545EA131343EA12632E
:100850004FEA022245EA111545EA10654FEA0026E3
:100860000EF000419D4208BF964244F1FD0404F59C
:10087000407402D25B084FEA3202B61A65EB0305F8
:100880005B084FEA32024FF480104FF4002CB6EBB5
:10089000020E75EB030E22BFB61A754640EA0C0035
:1008A0005B084FEA3202B6EB020E75EB030E22BF75
:1008B000B61A754640EA5C005B084FEA3202B6EBB6
:1008C000020E75EB030E22BFB61A754640EA9C0075
:1008D0005B084FEA3202B6EB020E75EB030E22BF45
:1008E000B61A754640EADC0055EA060E18D04FEA03
:1008F000051545EA16754FEA06164FEAC30343EAA3
:1009000052734FEAC2025FEA1C1CC0D111F4801F6F
:100910000BD141EA00014FF000004FF0004CB6E768
:1009200011F4801F04BF01430020B4F1FD0C88BF07
:10093000BCF5E06F3FF6AFAEB5EB030C04BFB6EB12
:10094000020C5FEA500C50F1000041EB045170BD05
:100950000EF0004E4EEA113114EB5C04C2BFD4EB32
:100960000C0541EA045170BD41F480114FF0000EB6
:10097000013C90E645EA060E8DE60CEA135594EA32
:100980000C0F08BF95EA0C0F3FF43BAF94EA0C0F35
:100990000AD150EA01347FF434AF95EA0C0F7FF4AA
:1009A00025AF104619462CE795EA0C0F06D152EAFE
:1009B00003353FF4FDAE1046194622E750EA4106E2
:1009C00018BF52EA43067FF4C5AE50EA41047FF4F3
:1009D0000DAF52EA43057FF4EBAE12E74FF0FF3C58
:1009E00006E000BF4FF0010C02E000BF4FF0010C29
:1009F0004DF804CD4FEA410C7FEA6C5C4FEA430CA2
:100A000018BF7FEA6C5C1BD001B050EA410C0CBFF0
:100A100052EA430C91EA030F02BF90EA020F002052
:100A2000704710F1000F91EA030F58BF994208BFB9
:100A300090422CBFD8176FEAE37040F00100704776
:100A40004FEA410C7FEA6C5C02D150EA013C07D1CD
:100A50004FEA430C7FEA6C5CD6D152EA033CD3D018
:100A60005DF8040B704700BF8446104662468C4612
:100A70001946634600E000BF01B5FFF7B7FF002845
:100A800048BF10F1000F01BD4DF808EDFFF7F4FF6E
:100A90000CBF012000205DF808FB00BF4DF808EDF9
:100AA000FFF7EAFF34BF012000205DF808FB00BF1C
:100AB0004DF808EDFFF7E0FF94BF012000205DF83E
:100AC00008FB00BF4DF808EDFFF7CEFF94BF0120F3
:100AD00000205DF808FB00BF4DF808EDFFF7C4FFEC
:100AE00034BF012000205DF808FB00BF4FEA410C35
:100AF0007FEA6C5C02D150EA013C0AD14FEA430C18
:100B00007FEA6C5C02D152EA033C02D14FF0000054
:100B100070474FF0010070474FEA410212F5001292
:100B200015D211D56FF47873B3EB625212D94FEA34
:100B3000C12343F0004343EA505311F0004F23FA1E
:100B400002F018BF404270474FF00000704750EA73
:100B5000013005D111F0004008BF6FF00040704730
:100B60004FF00000704700BF4A0011D212F500128A
:100B700011D20DD56FF47873B3EB62520ED44FEAF5
:100B8000C12343F0004343EA505323FA02F0704775
:100B90004FF00000704750EA013002D14FF0FF30B3
:100BA00070474FF00000704780B584B000AF7860A8
:100BB00004F0BEFA0E4B00221A600D4A7B68936067
:100BC0000B4B0122DA600A4B01225A6007F10C0339
:100BD0001946074804F094FB0346002B01D001F0AE
:100BE00075FD04F0CBFA00BF1037BD4680BD00BFD5
:100BF0003C020020B0B582B000AF7860396004F0EC
:100C000097FA3B6800221C46154622462B46796817
:100C1000022004F01DFA0346002B01D001F056FD1E
:100C200004F0ACFA00BF0837BD46B0BD80B582B055
:100C300000AF0346FB71FB79082B11D8FB790A4AF8
:100C400052F83300FB79084ADB0013449988FB799A
:100C5000054ADB0013449B791A4604F08DFD00E041
:100C600000BF0837BD4680BD0000002080B582B0BF
:100C700000AF0346FB71FB79082B11D8FB790A4AB8
:100C800052F83300FB79084ADB0013449988FB795A
:100C9000054ADB001344DB791A4604F06DFD00E0E1
:100CA00000BF0837BD4680BD0000002080B400AF03
:100CB000024B1846BD4680BC704700BF5002002062
:100CC00080B400AF024B1846BD4680BC704700BFE1
:100CD000A003002080B500AF2A48FFF765FF2A4B2C
:100CE00064221A82284B64225A82274B64229A82F9
:100CF000254B6422DA82244B14221A83224B1E22B3
:100D00005A83214B14229A831F4B1E22DA831E4BD7
:100D1000B3F9103019461B48FFF76CFF1A4BB3F9B3
:100D2000123019461948FFF765FF174BB3F9143015
:100D300019461748FFF75EFF134BB3F916301946F3
:100D40001448FFF757FF104BB3F9183019461248F3
:100D5000FFF750FF0C4BB3F91A3019460F48FFF755
:100D600049FF094BB3F91C3019460D48FFF742FF04
:100D7000054BB3F91E3019460A48FFF73BFF00BF89
:100D800080BD00BF00F80308A003002004F803089A
:100D900008F803080CF8030810F8030814F803080F
:100DA00018F803081CF8030880B582B000AF424B66
:100DB0001B881BB2FB80FB884FF6FF72934202D167
:100DC000FFF788FF03E0B7F906203C4B1A823C4B43
:100DD0001B881BB2FB80FB884FF6FF72934202D147
:100DE000FFF778FF03E0B7F90620344B5A82354B02
:100DF0001B881BB2FB80FB884FF6FF72934202D127
:100E0000FFF768FF03E0B7F906202C4B9A822E4BC0
:100E10001B881BB2FB80FB884FF6FF72934202D106
:100E2000FFF758FF03E0B7F90620244BDA82274B7F
:100E30001B881BB2FB80FB884FF6FF72934202D1E6
:100E4000FFF748FF03E0B7F906201C4B1A83204B3D
:100E50001B881BB2FB80FB884FF6FF72934202D1C6
:100E6000FFF738FF03E0B7F90620144B5A83194BFC
:100E70001B881BB2FB80FB884FF6FF72934202D1A6
:100E8000FFF728FF03E0B7F906200C4B9A83124BBB
:100E90001B881BB2FB80FB884FF6FF72934202D186
:100EA000FFF718FF03E0B7F90620044BDA8300BF11
:100EB0000837BD4680BD00BF00F80308A00300202E
:100EC00004F8030808F803080CF8030810F80308EE
:100ED00014F8030818F803081CF8030880B500AFDD
:100EE0003948FFF761FE394B002283F82020374B49
:100EF000012283F82120354B012283F82220334B35
:100F0000012283F82320314B0A2283F824202F4B1F
:100F1000002283F825202D4B002283F826202B4B1E
:100F2000002283F82720294B002283F82820274B12
:100F3000002283F82920254B93F8203019462248B7
:100F4000FFF758FE214B93F8213019462048FFF750
:100F500051FE1E4B93F8223019461E48FFF74AFEF9
:100F60001A4B93F8233019461B48FFF743FE174BE3
:100F700093F8243019461948FFF73CFE134B93F9B8
:100F8000253019461648FFF735FE104B93F92630E9
:100F900019461448FFF72EFE0C4B93F927301946DB
:100FA0001148FFF727FE094B93F9283019460F48DF
:100FB000FFF720FE054B93F8293019460C48FFF740
:100FC00019FE00BF80BD00BF00F00308A003002091
:100FD00004F0030808F003080CF0030810F00308FD
:100FE00014F0030818F003081CF0030820F00308AD
:100FF00024F0030880B582B000AF414B1B78DBB210
:10100000FB80FB88FF2B02D1FFF768FF04E0FB8821
:10101000DAB23C4B83F820203B4B1B78DBB2FB80E1
:10102000FB88FF2B02D1FFF759FF04E0FB88DAB2FF
:10103000344B83F82120354B1B78DBB2FB80FB88D7
:10104000FF2B02D1FFF74AFF04E0FB88DAB22D4BF9
:1010500083F822202E4B1B78DBB2FB80FB88FF2B12
:1010600002D1FFF73BFF04E0FB88DAB2254B83F89F
:101070002320284B1B78DBB2FB80FB88FF2B02D19F
:10108000FFF72CFF04E0FB88DAB21E4B83F8242024
:10109000214B1B785BB2FB80FB885AB2194B83F85B
:1010A00025201E4B1B785BB2FB80FB885AB2154B88
:1010B00083F826201A4B1B785BB2FB80FB885AB260
:1010C000104B83F82720174B1B785BB2FB80FB8803
:1010D0005AB20C4B83F82820134B1B78DBB2FB80F1
:1010E000FB88FF2B02D1FFF7F9FE04E0FB88DAB2A0
:1010F000044B83F8292000BF0837BD4680BD00BFE0
:1011000000F00308A003002004F0030808F003081F
:101110000CF0030810F0030814F0030818F003089B
:101120001CF0030820F0030824F0030880B500AF8A
:101130005448FFF739FD544B00225A85524B002288
:101140009A85514B0022DA854F4B00221A864E4B6E
:1011500000225A864C4B00229A864B4B0022DA869C
:10116000494B00221A87484B96225A87464BB42295
:101170009A87454B9622DA87434BB422A3F8402046
:10118000414B9622A3F842203F4BB422A3F84420BF
:101190003D4B9622A3F846203B4BB422A3F84820AF
:1011A000394BB3F92A3019463648FFF723FD364B41
:1011B000B3F92C3019463548FFF71CFD324BB3F913
:1011C0002E3019463248FFF715FD2F4BB3F930305A
:1011D00019463048FFF70EFD2B4BB3F93230194654
:1011E0002D48FFF707FD284BB3F9343019462B483B
:1011F000FFF700FD244BB3F9363019462848FFF7B6
:10120000F9FC214BB3F9383019462648FFF7F2FCB8
:101210001D4BB3F93A3019462348FFF7EBFC1A4B44
:10122000B3F93C3019462148FFF7E4FC164BB3F9FB
:101230003E3019461E48FFF7DDFC134BB3F9403032
:1012400019461C48FFF7D6FC0F4BB3F9423019463C
:101250001948FFF7CFFC0C4BB3F944301946174837
:10126000FFF7C8FC084BB3F9463019461448FFF79E
:10127000C1FC054BB3F9483019461248FFF7BAFCD8
:1012800000BF80BD00E80308A003002004E80308B5
:1012900008E803080CE8030810E8030814E803084A
:1012A00018E803081CE8030820E8030824E80308FA
:1012B00028E803082CE8030830E8030834E80308AA
:1012C00038E803083CE8030880B582B000AF684BFB
:1012D0001B88FB80FB884FF6FF72934202D1FFF719
:1012E00025FF03E0B7F90620624B5A85624B1B8845
:1012F0001BB2FB80B7F906205E4B9A855F4B1B88BB
:101300001BB2FB80B7F906205A4BDA855C4B1B8871
:101310001BB2FB80B7F90620564B1A86594B1B8827
:101320001BB2FB80B7F90620524B5A86564B1B88DE
:101330001BB2FB80B7F906204E4B9A86534B1B8895
:101340001BB2FB80B7F906204A4BDA86504B1B884C
:101350001BB2FB80B7F90620464B1A874D4B1B8802
:101360001BB2FB80FB884FF6FF72934202D1FFF75E
:10137000DDFE03E0B7F906203E4B5A87464B1B883B
:101380001BB2FB80FB884FF6FF72934202D1FFF73E
:10139000CDFE03E0B7F90620364B9A873F4B1B88FA
:1013A0001BB2FB80FB884FF6FF72934202D1FFF71E
:1013B000BDFE03E0B7F906202E4BDA87384B1B88B9
:1013C0001BB2FB80FB884FF6FF72934202D1FFF7FE
:1013D000ADFE04E0B7F90620264BA3F84020314BC0
:1013E0001B881BB2FB80FB884FF6FF72934202D131
:1013F000FFF79CFE04E0B7F906201E4BA3F842203D
:10140000294B1B881BB2FB80FB884FF6FF7293426F
:1014100002D1FFF78BFE04E0B7F90620154BA3F8C5
:101420004420224B1B881BB2FB80FB884FF6FF72C7
:10143000934202D1FFF77AFE04E0B7F906200D4B84
:10144000A3F846201A4B1B881BB2FB80FB884FF683
:10145000FF72934202D1FFF769FE04E0B7F906205C
:10146000044BA3F8482000BF0837BD4680BD00BF2D
:1014700000E80308A003002004E8030808E80308C4
:101480000CE8030810E8030814E8030818E8030848
:101490001CE8030820E8030824E8030828E80308F8
:1014A0002CE8030830E8030834E8030838E80308A8
:1014B0003CE8030880B500AF5B48FFF775FB5B4B6A
:1014C0004FF4FA72A3F84A20584B0022A3F84C209C
:1014D000564B0022A3F85020544B0022A3F84E2074
:1014E000524B0022A3F85220504B0022A3F8542064
:1014F0004E4B0022A3F856204C4B0022A3F8582054
:101500004A4B4FF4FA72A3F85A20484B0022A3F832
:101510005C20464B0022A3F86020444B0022A3F835
:101520005E20424B0022A3F86220404B0022A3F829
:1015300064203E4B0022A3F866203C4B0022A3F817
:1015400068203A4BB3F84A3019463748FFF752FB48
:10155000364BB3F94C3019463548FFF74BFB334B4C
:10156000B3F84E3019463348FFF744FB2F4BB3F81E
:10157000503019463048FFF73DFB2C4BB3F8523042
:1015800019462E48FFF736FB284BB3F8543019465E
:101590002B48FFF72FFB254BB3F856301946294847
:1015A000FFF728FB214BB3F8583019462648FFF7C0
:1015B00021FB1E4BB3F85A3019462448FFF71AFB9B
:1015C0001A4BB3F95C3019462148FFF713FB174B50
:1015D000B3F85E3019461F48FFF70CFB134BB3F806
:1015E000603019461C48FFF705FB104BB3F862301A
:1015F00019461A48FFF7FEFA0C4BB3F86430194647
:101600001748FFF7F7FA094BB3F866301946154843
:10161000FFF7F0FA054BB3F8683019461248FFF7A8
:10162000E9FA00BF80BD00BF00E00308A00300206E
:1016300004E0030808E003080CE0030810E00308D6
:1016400014E0030818E003081CE0030820E0030886
:1016500024E0030828E003082CE0030830E0030836
:1016600034E0030838E003083CE0030880B582B0AA
:1016700000AF734B1B88FB80FB884FF6FF729342D1
:1016800002D1FFF717FF03E06E4AFB88A2F84A3049
:101690006D4B1B88FB80B7F906206A4BA3F84C20E2
:1016A0006A4B1B88FB80FB884FF6FF72934202D186
:1016B000FFF700FF03E0634AFB88A2F84E30644B5B
:1016C0001B88FB80FB884FF6FF72934202D1FFF725
:1016D000F1FE03E05B4AFB88A2F850305D4B1B88AB
:1016E000FB80FB884FF6FF72934202D1FFF7E2FEC8
:1016F00003E0544AFB88A2F85230574B1B88FB800A
:10170000FB884FF6FF72934202D1FFF7D3FE03E04E
:101710004C4AFB88A2F85430504B1B88FB80FB8856
:101720004FF6FF72934202D1FFF7C4FE03E0454A31
:10173000FB88A2F856304A4B1B88FB80FB884FF68B
:10174000FF72934202D1FFF7B5FE03E03D4AFB88EA
:10175000A2F85830434B1B88FB80FB884FF6FF7282
:10176000934202D1FFF7A6FE03E0364AFB88A2F8B7
:101770005A303D4B1B88FB80B7F90620314BA3F84C
:101780005C203A4B1B88FB80FB884FF6FF7293422C
:1017900002D1FFF78FFE03E02A4AFB88A2F85E30F1
:1017A000334B1B88FB80FB884FF6FF72934202D1BC
:1017B000FFF780FE03E0234AFB88A2F860302D4B40
:1017C0001B88FB80FB884FF6FF72934202D1FFF724
:1017D00071FE03E01B4AFB88A2F86230264B1B888F
:1017E000FB80FB884FF6FF72934202D1FFF762FE47
:1017F00003E0144AFB88A2F86430204B1B88FB806E
:10180000FB884FF6FF72934202D1FFF753FE03E0CD
:101810000C4AFB88A2F86630194B1B88FB80FB88BA
:101820004FF6FF72934202D1FFF744FE03E0054AF0
:10183000FB88A2F8683000BF0837BD4680BD00BFF6
:1018400000E00308A003002004E0030808E0030808
:101850000CE0030810E0030814E0030818E0030894
:101860001CE0030820E0030824E0030828E0030844
:101870002CE0030830E0030834E0030838E00308F4
:101880003CE0030880B500AFFFF78EFAFFF7B2FB2C
:10189000FFF71AFDFFF7EAFE00BF80BD80B485B0F8
:1018A00000AF786039607B681B88FB813B681B88D0
:1018B000BB81FA89BB899A4202D24FF0FF3306E01E
:1018C000FA89BB899A4201D9012300E00023184616
:1018D0001437BD4680BC7047B0B584B000AF7860A7
:1018E000FFF7EEF90346BB60614B1B78032B00F258
:1018F000B48101A252F823F0091900082B1900083D
:1019000077190008611A00087B684833C822002153
:10191000184609F07CFD574B00221A70544B1B7877
:101920000133DAB2524B1A7097E1524B1B781A46C8
:10193000514B1B8899B27B68243223F812104D4B0F
:101940001B781A464C4B5B8899B27B68563223F859
:101950001210484B1B780133DAB2464B1A70454BD4
:101960001B78312B40F27881414B1B780133DAB27E
:101970003F4B1A7070E17B6803F148003F4B022235
:10198000322108F064FE7B6803F1AC003B4B02227D
:10199000322108F05CFE7B68B3F878301A467B6829
:1019A000B3F87A3013447A68B2F87C2013447A682A
:1019B000B2F87E2013441846FEF794FD4FF0000263
:1019C0002F4BFEF723FF02460B46104619464FF0F9
:1019D00000022C4BFEF71AFF02460B461046194632
:1019E00021A3D3E90023FEF7E7FD02460B46796801
:1019F000C1E944237B68B3F8DC301A467B68B3F84E
:101A0000DE3013447A68B2F8E02013447A68B2F802
:101A1000E22013441846FEF765FD4FF00002184B14
:101A2000FEF7F4FE02460B46104619464FF0000240
:101A3000144BFEF7EBFE02460B46104619460AA36E
:101A4000D3E90023FEF7B8FD02460B467968C1E9E9
:101A50004623074B1B780133DAB2054B1A70FCE0C2
:101A60000023FB7355E000BF6666666666660A4043
:101A70001404002015040020100400209D18000804
:101A8000000010400000B040FB7B7A682233DB008E
:101A90001344D3E9000174A3D3E90023FEF78CFDBE
:101AA00002460B4610461946FB7B7A682233DB0060
:101AB0001344D3E90023FEF77FFD02460B4614468C
:101AC0001D46FB7B7A682233DB001344D3E9000117
:101AD00067A3D3E90023FEF76FFD02460B462046BD
:101AE0002946FEF7B3FB02460B4610461946FC7B1F
:101AF00061A3D3E90023FEF7A7FB02460B467868F3
:101B000004F12401C9000144C1E90023FB7B013336
:101B1000FB73FB7B012BB7D97B68D3E948014FF0FE
:101B20000002574BFEF748FD02460B461046194689
:101B30004FF00002534BFEF787FB02460B4614465C
:101B40001D46BB68B3F84A301846FEF7BBFC4FF0A1
:101B500000024D4BFEF75AFE02460B462046294630
:101B6000FEF72AFD02460B467968C1E94C237B68E3
:101B7000D3E94C014FF00002434BFEF71DFD024636
:101B80000B4614461D46BB68B3F94C301846FEF7A9
:101B9000A9FC02460B4620462946FEF757FB0246A3
:101BA0000B4610461946FEF7DFFF03469AB27B68E4
:101BB000A3F840217B68D3E94A014FF00002304B83
:101BC000FEF7FAFC02460B46104619464FF000029B
:101BD0002C4BFEF739FB02460B4614461D46BB68EC
:101BE000B3F85A301846FEF76DFC4FF00002264B52
:101BF000FEF70CFE02460B4620462946FEF7DCFCAB
:101C000002460B467968C1E94E237B68D3E94E0151
:101C10004FF000021C4BFEF7CFFC02460B46144669
:101C20001D46BB68B3F95C301846FEF75BFC024604
:101C30000B4620462946FEF709FB02460B46104696
:101C40001946FEF791FF03469AB27B68A3F842213A
:101C50000E4B00221A7000E000BF00BF1037BD46D7
:101C6000B0BD00BFAFF300804C37894160E5B0BF25
:101C700037894160E5902440E09C11A5BDC1A73F94
:101C80000000B03F0000D03F000059401404002085
:101C900080B584B000AF7860FFF708F80346FB60BA
:101CA000074802F007FD02220649054802F00EFA35
:101CB000F868FFF711FE012005F0D6FE00BFF7E738
:101CC000780400201004002080B500AF044A0021F1
:101CD000044805F01FFE0346034A136000BF80BDA1
:101CE000C0D60008911C00080C04002080B582B00A
:101CF00000AF03460A46FB711346BB80FB79012BFC
:101D00000AD10820FEF792FF074B1B68BA881146DC
:101D1000184605F071FF02E00820FEF7A7FF00BF9C
:101D20000837BD4680BD00BF1C04002080B586B0CA
:101D300000AF78600B46FB707B68D3E94C231046FC
:101D40001946FEF711FF03469BB21A4AA2FB032372
:101D50005B099BB207F10C00174A0A2109F0E0FA6F
:101D600007F10C031A460021144802F030F87B6892
:101D7000D3E94C2310461946FEF7F6FE03469BB204
:101D80000C4AA2FB03125209642101FB02F29B1AC6
:101D90009BB207F10C00084A0A2109F0C1FA07F1C9
:101DA0000C031A460021064802F011F800BF18374C
:101DB000BD4680BD1F85EB5198D600084804002021
:101DC0002004002080B586B000AF78603960002321
:101DD000FB6007F1100300221A609A807B68D3E948
:101DE000442310461946FEF7BFFE03469BB21A4A2B
:101DF000A2FB03235B099BB207F10C00174A0A21DF
:101E000009F08EFA07F10C031A460121144801F07B
:101E1000DEFF7B68D3E9442310461946FEF7A4FE93
:101E200003469BB20C4AA2FB03125209642101FB38
:101E300002F29B1A9BB207F10C00084A0A2109F032
:101E40006FFA07F10C031A460121064801F0BFFFA3
:101E500000BF1837BD4680BD1F85EB5198D60008DE
:101E6000200400204804002080B582B000AF7860D4
:101E700039603B681B78012B51D12B4B1B78002B11
:101E800002D0012B0CD04AE002F02CF80346274A7E
:101E90001360254B1B780133DAB2234B1A703EE0F6
:101EA00002F020F80246214B1B68D31AB3F5FA7FE3
:101EB00034D302F017F803461C4A13603B6893F8CA
:101EC0002030002B03D11A4B00221A701CE03B6813
:101ED00093F82030012B03D1154B01221A7013E027
:101EE000144B1B780133DAB2124B1A70114B1B786A
:101EF000042B09D90F4B00221A700D4B1B7883F06D
:101F00000103DAB20A4B1A70094B1B78194678683C
:101F1000FFF70CFF39687868FFF754FF00BF00BF78
:101F20000837BD4680BD00BF720400207404002045
:101F3000700400207104002080B500AF184B194ACE
:101F40009A60174B4FF480729A81154B154A1A60AC
:101F5000134B4FF400729A80114B134A1A61104BC5
:101F60004FF480429A820E4801F0D9F80F4B104A84
:101F70009A600E4B4FF400629A810C4B0C4A1A6027
:101F80000A4B4FF480529A80084B074A1A61074B5C
:101F90004FF400429A82054801F0C1F800BF80BDAD
:101FA00020040020000C01400010014048040020E3
:101FB0000008014080B584B000AF7860FEF776FE7F
:101FC0000346FB60FEF77CFE0346BB600023012254
:101FD0000021084805F08CFD0346074A1360FFF70F
:101FE000ABFFB968F868FFF73FFF0A2005F03CFD3A
:101FF00000BFF6E7212000081C04002080B500AFD8
:10200000044A0021044805F085FC0346034A136096
:1020100000BF80BDE4D60008B51F000818040020EA
:1020200080B584B000AF78607B68FB60FB68012BF3
:1020300003D100210020FFF759FE00BF1037BD4635
:1020400080BD000080B584B000AF3B1D00221A6047
:102050005A609A60204B214A1A601F4B4FF48072DD
:102060009A601D4B01221A731B4B00221A751A4BE2
:102070004FF46022DA61184B00225A60164B02229C
:102080001A61154801F038FF0346002B01D000F01B
:102090001DFB00237B600123BB600723FB603B1D0E
:1020A00019460D4802F00CF90346002B01D000F050
:1020B0000DFB01237B600223BB603B1D19460648D4
:1020C00002F0FEF80346002B01D000F0FFFA00BF3B
:1020D0001037BD4680BD00BF7804002000240140B9
:1020E00080B588B000AF786007F1100300221A6055
:1020F0005A609A60DA607B681B68284A934249D12B
:10210000274B9B69264A43F400739361244B9B69D8
:1021100003F40073FB60FB68214B9B69204A43F08A
:10212000040393611E4B9B6903F00403BB60BB680F
:1021300003233B6103237B6107F110031946194810
:1021400003F086F9184B194A1A60174B00225A609F
:10215000154B00229A60144B8022DA60124B4FF428
:1021600080721A61104B4FF480625A610E4B20222C
:102170009A610D4B0022DA610B4802F029FC0346FC
:10218000002B01D000F0A2FA7B68074A1A62064AC7
:102190007B68536200BF2037BD4680BD00240140EC
:1021A0000010024000080140A8040020080002407E
:1021B00080B582B000AF144B5B69134A43F0010352
:1021C0005361114B5B6903F001037B607B68002264
:1021D00005210B2002F0D1FB0B2002F0EAFB0022CC
:1021E00005210F2002F0C9FB0F2002F0E2FB0022C4
:1021F0000521102002F0C1FB102002F0DAFB00BF25
:102200000837BD4680BD00BF0010024080B500AF5A
:10221000074A0021074805F07DFB0346064A136084
:10222000FFF730FBFFF750FDFFF7E8FE00BF80BD72
:1022300008D700083D220008EC04002080B582B0D9
:1022400000AF78600421044803F0AEFA4FF4FA704E
:1022500005F00AFC00BFF5E7000C014080B588B02E
:1022600000AF07F1100300221A605A609A60DA602A
:102270004E4B9B694D4A43F0100393614B4B9B6956
:1022800003F01003FB60FB68484B9B69474A43F02F
:1022900020039361454B9B6903F02003BB60BB683F
:1022A000424B9B69414A43F0040393613F4B9B6956
:1022B00003F004037B607B683C4B9B693B4A43F023
:1022C00008039361394B9B6903F008033B603B684B
:1022D00000224FF44041364803F04EFA012240F20A
:1022E000BC71334803F048FA002241F6100131482E
:1022F00003F042FA01224FF4E0712E4803F03CFA59
:10230000002240F205312C4803F036FA0122022166
:10231000294803F031FA43F643033B6100237B6114
:102320000023BB6107F110031946214803F090F820
:102330004CF2BC733B6101237B610023BB61022330
:10234000FB6107F110031946194803F081F841F6C3
:10235000D0133B6101237B610023BB610223FB613E
:1023600007F110031946134803F072F840F20733DF
:102370003B6101237B610023BB610223FB6107F109
:10238000100319460C4803F063F84FF400433B6117
:1023900000237B610023BB6107F110031946054848
:1023A00003F056F800BF2037BD4680BD0010024044
:1023B0000010014000080140000C014080B500AF52
:1023C000124B134A1A60114B124A5A600F4B0022EB
:1023D0009A600E4B0022DA600C4B4FF480421A6177
:1023E0000A4B00225A61094B00229A61074B0022D6
:1023F000DA61064B00221A62044803F0EFF9034643
:10240000002B01D000F062F900BF80BDF004002075
:1024100000540040A086010080B500AF124B134A63
:102420001A60114B124A5A600F4B00229A600E4BF1
:102430000022DA600C4B4FF480421A610A4B0022F2
:102440005A61094B00229A61074B0022DA61064B60
:1024500000221A62044803F0C1F90346002B01D0A0
:1024600000F034F900BF80BD440500200058004052
:10247000A086010080B58AB000AF786007F118032C
:1024800000221A605A609A60DA607B681B682B4AE7
:10249000934224D12A4B9B69294A43F00803936154
:1024A000274B9B6903F008037B617B69C023BB61F9
:1024B0001223FB6103237B6207F1180319462148AD
:1024C00002F0C6FF1E4BDB691D4A43F40013D361C3
:1024D0001B4BDB6903F400133B613B6929E07B681C
:1024E0001B68194A934224D1154B9B69144A43F047
:1024F00008039361124B9B6903F00803FB60FB68C0
:102500004FF44063BB611223FB6103237B6207F13D
:10251000180319460B4802F09BFF094BDB69084A78
:1025200043F48003D361064BDB6903F48003BB6093
:10253000BB6800BF2837BD4680BD00BF00540040C7
:1025400000100240000C01400058004080B500AF70
:1025500001F0A0FC00F01EF8FFF780FEFFF728FE58
:10256000FFF770FDFFF72AFFFFF756FF00F058F95D
:1025700000F05CFC00F084FC00F01CF900F0E4FBCF
:1025800000F0AAF805F060F9FFF740FE05F08EF9BB
:1025900000BFFDE780B596B000AF07F130032822F9
:1025A0000021184608F033FF07F11C0300221A60CF
:1025B0005A609A60DA601A613B1D00221A605A6004
:1025C0009A60DA601A615A6109233B634FF48033E1
:1025D0007B630023BB6301233B640123BB640223B1
:1025E000FB644FF480333B654FF4E0137B6507F1E8
:1025F0003003184603F042FA0346002B01D000F0E6
:1026000065F80F23FB6102233B6200237B624FF4DA
:102610008063BB620023FB6207F11C0302211846A2
:1026200003F0AEFC0346002B01D000F04FF803236B
:102630007B604FF40073BB604FF40043FB603B1DB5
:10264000184603F05BFE0346002B01D000F03EF875
:1026500000BF5837BD4680BD80B400AF0D4B1B781E
:10266000DBB2002B06D00B4B1B78DBB2013BDAB29E
:10267000084B1A70084B1B78DBB2002B06D0064BB8
:102680001B78DBB2013BDAB2034B1A7000BFBD46C8
:1026900080BC7047980500209905002080B582B065
:1026A00000AF78607B681B68074A934201D101F054
:1026B00007FC7B681B68B3F1804F01D1FFF7CCFFAB
:1026C00000BF0837BD4680BD0010004080B400AF99
:1026D00072B600BF00BFFDE780B582B000AF3B1D02
:1026E00000210A461A800A469A7000233B601D4B5F
:1026F0001D4A1A601B4B4FF0FF325A60194B4FF4C2
:1027000080729A60174803F087FF0346002B01D0C0
:10271000FFF7DCFF00233B7100237B710023BB71BB
:102720003B1D012219460F4804F002F80346002B16
:1027300001D0FFF7CBFF01233B7001237B70012306
:10274000BB700023FB703B4601221946054804F08C
:1027500087F80346002B01D0FFF7B8FF00BF08370A
:10276000BD4680BD9C0500200028004080B584B097
:1027700000AF78607B681B680B4A934210D103F06E
:1027800071F90A4BDB69094A43F00063D361074BD7
:10279000DB6903F00063FB60FB68054B01221A60F4
:1027A00000BF1037BD4680BD002800400010024029
:1027B0003C04424280B500AF174B184A1A60164BD2
:1027C0004FF482725A60144B00229A60124B00221E
:1027D000DA60114B00221A610F4B01225A610E4B35
:1027E0004FF400729A610C4B2022DA610A4B0022EE
:1027F0001A62094B00225A62074B00229A62064B6A
:102800000A22DA62044804F08BFA0346002B01D056
:10281000FFF75CFF00BF80BDB00500200030014025
:1028200080B500AF174B184A1A60164B4FF48272EE
:102830005A60144B00229A60124B0022DA60114B4E
:1028400000221A610F4B00225A610E4B4FF4802276
:102850009A610C4B0822DA610A4B00221A62094B7A
:1028600000225A62074B00229A62064B0A22DA6261
:10287000044804F055FA0346002B01D0FFF726FF69
:1028800000BF80BD080600200038004080B58CB035
:1028900000AF786007F11C0300221A605A609A604A
:1028A000DA607B681B683E4A93423ED13D4B9B6990
:1028B0003C4A43F4805393613A4B9B6903F4805341
:1028C000BB61BB69374B9B69364A43F00803936190
:1028D000344B9B6903F008037B617B692823FB6110
:1028E00002233B620323BB6207F11C0319462E48F7
:1028F00002F0AEFD1023FB6100233B6200237B62EC
:1029000007F11C031946284802F0A2FD274B5B681B
:10291000FB62FB6A43F0E063FB62FB6A43F0010386
:10292000FB62224AFB6A536036E07B681B68204AE0
:10293000934231D11B4BDB691A4A43F48043D36184
:10294000184BDB6903F480433B613B69154B9B6982
:10295000144A43F008039361124B9B6903F0080388
:10296000FB60FB684FF43043FB6102233B620323AF
:10297000BB6207F11C0319460B4802F069FD4FF4D6
:102980008043FB6100233B6200237B6207F11C0351
:102990001946054802F05CFD00BF3037BD4680BDDA
:1029A0000030014000100240000C014000000140D6
:1029B0000038004080B584B000AF184B9B69174ABF
:1029C00043F001039361154B9B6903F00103BB6066
:1029D000BB68124BDB69114A43F08053D3610F4B44
:1029E000DB6903F080537B607B6800220F216FF06E
:1029F000010001F0C2FF0A4B5B68FB60FB6823F03B
:102A0000E063FB60FB6843F00073FB60044AFB6813
:102A1000536000BF1037BD4680BD00BF00100240AC
:102A20000000014080B58EB000AF78600023FB62EB
:102A30000023BB62002387F83330344BDB69334A11
:102A400043F01003D361314BDB6903F01003FB60EB
:102A5000FB6807F1100207F114031146184603F052
:102A6000FFFB3B6AFB62FB6A002B03D103F0D0FB48
:102A7000786304E003F0CCFB03465B007B637B6B75
:102A8000234AA2FB03239B0C013BBB62214B224A3E
:102A90001A60204B40F2E732DA601E4ABB6A53608C
:102AA0001C4B00221A611B4B00229A60194B00221A
:102AB0009A61184804F0B8F9034687F8333097F85C
:102AC0003330002B1BD1134804F0FEF9034687F87E
:102AD000333097F83330002B11D1362001F069FFE5
:102AE0007B680F2B08D800227968362001F045FF5B
:102AF0000A4A7B68136002E0012387F8333097F8B5
:102B0000333018463837BD4680BD00BF0010024044
:102B100083DE1B4360060020001000404C000020B4
:102B200080B400AF00BFFDE780B400AF00BFFDE799
:102B300080B400AF00BFFDE780B400AF00BFFDE789
:102B400080B400AF00BFFDE780B400AF00BFBD465A
:102B500080BC704780B500AF024802F00FF800BF9C
:102B600080BD00BFA804002080B500AF024802F07D
:102B700005F800BF80BD00BF8407002080B500AF0E
:102B8000024801F0FBFF00BF80BD00BFC807002066
:102B900080B500AF024804F0F7F900BF80BD00BF68
:102BA000AC06002080B500AF024804F0EDF900BF8C
:102BB00080BD00BF6006002080B400AF012318462E
:102BC000BD4680BC704780B582B000AF7860396088
:102BD00008F0C6FC034616221A604FF0FF33184671
:102BE0000837BD4680BD80B582B000AF78604FF039
:102BF000FF317868FFF7E7FF00BFFDE780B586B0DB
:102C000000AFF860B9607A6000237B610AE0AFF33F
:102C100000800146BB685A1CBA60CAB21A707B6950
:102C200001337B617A697B689A42F0DB7B681846E6
:102C30001837BD4680BD80B586B000AFF860B9607A
:102C40007A6000237B6109E0BB685A1CBA601B787C
:102C50001846AFF300807B6901337B617A697B683A
:102C60009A42F1DB7B6818461837BD4680BD80B4B8
:102C700083B000AF78604FF0FF3318460C37BD4685
:102C800080BC704780B483B000AF786039603B6827
:102C90004FF400525A60002318460C37BD4680BCE2
:102CA000704780B483B000AF7860012318460C37BA
:102CB000BD4680BC704780B485B000AFF860B96095
:102CC0007A60002318461437BD4680BC7047000068
:102CD00080B586B000AF7860144A154BD31A7B617B
:102CE0007B693B61134B1B68002B02D1114B124ACD
:102CF0001A60104B1A687B6813443A699A4207D2EB
:102D000008F02EFC03460C221A604FF0FF3309E056
:102D1000084B1B68FB60074B1A687B681344054A25
:102D20001360FB6818461837BD4680BD00C0002000
:102D300000160000A80600206047002080B400AF05
:102D400000BFBD4680BC704780B586B000AF07F1BC
:102D5000080300221A605A609A60DA603B4600223B
:102D60001A605A601E4B4FF080421A601C4B40F2B2
:102D7000CF225A601A4B00229A60194B40F2E73278
:102D8000DA60174B00221A61154B00229A61144831
:102D900004F04AF80346002B01D0FFF797FC4FF4EC
:102DA0008053BB6007F1080319460D4804F0F4F99D
:102DB0000346002B01D0FFF789FC00233B60002372
:102DC0007B603B461946064804F0E2FB0346002BB5
:102DD00001D0FFF77BFC00BF1837BD4680BD00BFA8
:102DE000AC06002080B584B000AF78607B681B68BB
:102DF000B3F1804F13D10C4BDB690B4A43F0010355
:102E0000D361094BDB6903F00103FB60FB6800221F
:102E100005211C2001F0B1FD1C2001F0CAFD00BFFE
:102E20001037BD4680BD00BF0010024080B500AF26
:102E3000114B124A1A60104B4FF4E1325A600E4B9C
:102E400000229A600C4B0022DA600B4B00221A61C0
:102E5000094B0C225A61084B00229A61064B002252
:102E6000DA61054804F012FC0346002B01D0FFF79D
:102E70002DFC00BF80BD00BFF406002000380140DB
:102E800080B582B000AF244B1B78DBB2FB80FB889F
:102E9000FF2B1CD0FB88012B04D1204B4FF4165282
:102EA0005A6018E0FB88022B04D11C4B4FF41642E9
:102EB0005A6010E0FB88032B04D1184B4FF4E13229
:102EC0005A6008E0154B4FF416525A6003E0134B5A
:102ED0004FF416525A60114B114A1A600F4B0022E0
:102EE0009A600E4B0022DA600C4B00221A610B4BE9
:102EF0000C225A61094B00229A61084B0022DA61C8
:102F0000064804F0C3FB0346002B01D0FFF7DEFBAD
:102F100000BF0837BD4680BD08F003083C0700200D
:102F20000044004080B58AB000AF786007F1180314
:102F300000221A605A609A60DA607B681B685D4AFA
:102F4000934258D15C4B9B695B4A43F48043936145
:102F5000594B9B6903F480437B617B69564B9B69AA
:102F6000554A43F004039361534B9B6903F00403F8
:102F70003B613B694FF40073BB610223FB61032398
:102F80007B6207F1180319464C4802F061FA4FF4CE
:102F90008063BB610023FB6100233B6207F11803E0
:102FA0001946464802F054FA454B464A1A60444BCB
:102FB00000225A60424B00229A60414B8022DA6024
:102FC0003F4B00221A613E4B00225A613C4B2022AB
:102FD0009A613B4B0022DA61394801F0F9FC034663
:102FE000002B01D0FFF772FB7B68354ADA63344A65
:102FF0007B6853625AE07B681B68334A934255D121
:103000002D4BDB692C4A43F40033D3612A4BDB6937
:1030100003F40033FB60FB68274B9B69264A43F0AF
:1030200004039361244B9B6903F00403BB60BB68FA
:103030000423BB610223FB6103237B6207F11803B6
:1030400019461E4802F004FA0823BB610023FB6105
:1030500000233B6207F118031946184802F0F8F9FB
:103060001A4B1B4A1A60194B00225A60174B002258
:103070009A60164B8022DA60144B00221A61134BBF
:1030800000225A61114B20229A61104B0022DA6112
:103090000E4801F09DFC0346002B01D0FFF716FB04
:1030A0007B680A4ADA63094A7B68536200BF2837A3
:1030B000BD4680BD003801400010024000080140BC
:1030C000840700205800024000440040C807002048
:1030D0006C000240FFF732FE0B480C490C4A0023FB
:1030E00002E0D458C4500433C4188C42F9D3094ABE
:1030F000094C002301E013600432A242FBD308F024
:1031000035FAFFF723FA7047000000202002002064
:10311000E8DA0008200200205C470020FEE780B5C6
:1031200084B000AF78607B6818697B689B8A012255
:10313000194602F021FB7B6898687B689B89012215
:10314000194602F019FB7B6818687B689B8801228E
:10315000194602F011FB012004F086FC4421786836
:1031600000F029F88721786800F025F87B68186955
:103170007B689B8A0022194602F0FEFA00217868DB
:1031800000F038F80023FB6006E00021786800F0CA
:1031900031F8FB680133FB60FB680F2BF5DD7B68C2
:1031A00018697B689B8A0122194602F0E5FA00BF84
:1031B0001037BD4680BD80B582B000AF78600B4649
:1031C000FB707B6818697B689B8A0022194602F0B5
:1031D000D3FAFB781946786800F00CF87B68186918
:1031E0007B689B8A0122194602F0C6FA00BF0837A5
:1031F000BD4680BD80B584B000AF78600B46FB70E3
:103200000023FB6023E07B6898687B689B89002231
:10321000194602F0B1FA7B6818687B689988FB78D8
:1032200003F00103DBB21A4602F0A6FAFB785B0852
:10323000FB707B6898687B689B890122194602F0C5
:103240009BFA012004F010FCFB680133FB60FB6873
:10325000072BD8DD00BF00BF1037BD4680BD80B54D
:1032600084B000AF78600B46FB707B6818687B68A1
:103270009B880122194602F07FFA7B6818697B68F7
:103280009B8A0122194602F077FA7B6898687B686E
:103290009B890122194602F06FFA012000F08BF899
:1032A0007B6818697B689B8A0122194602F064FAE0
:1032B0004021786800F038F87B6818697B689B8A41
:1032C0000122194602F058FAC021786800F02CF863
:1032D0000023FB730CE07B6803F11702FB7B1344B4
:1032E0001B781946786800F01FF8FB7B0133FB73ED
:1032F000FB7B0F2BEFD97B6818697B689B8A0122C7
:10330000194602F039FAFB781946786800F00CF893
:103310007B6818697B689B8A0122194602F02CFAA7
:1033200000BF1037BD4680BD80B584B000AF786067
:103330000B46FB707B6818697B689B8A00221946E4
:1033400002F01AFA0023FB732BE07B6898687B6815
:103350009B890022194602F00FFAFA78FB7B42FAA9
:1033600003F303F00103002B08D07B6818687B6827
:103370009B880122194602F0FFF907E07B68186874
:103380007B689B880022194602F0F6F97B689868F2
:103390007B689B890122194602F0EEF9FB7B013321
:1033A000FB73FB7B072BD0D9012000F004F800BF92
:1033B0001037BD4680BD80B483B000AF786002E0B6
:1033C0007B68013B7B607B68002BF9DC00BF00BFA2
:1033D0000C37BD4680BC704780B483B000AF034655
:1033E000FB71FB792D3B4C2B00F20C8101A252F8B2
:1033F00023F000BF01360008053600080536000836
:10340000293500082D35000831350008353500080C
:10341000393500083D3500084135000845350008BC
:10342000493500084D350008053600080536000806
:103430000536000805360008053600080536000880
:103440000536000851350008593500086135000877
:1034500069350008713500087935000881350008A4
:1034600089350008913500089935000805360008AF
:10347000A1350008A9350008B1350008B9350008A4
:10348000C1350008C9350008D1350008D935000814
:10349000E1350008E935000805360008F135000877
:1034A00005360008F935000805360008053600081D
:1034B0000536000805360008053600080536000800
:1034C00005360008553500085D35000865350008EB
:1034D0006D350008753500087D3500088535000814
:1034E0008D350008953500089D3500080536000823
:1034F000A5350008AD350008B5350008BD35000814
:10350000C5350008CD350008D5350008DD35000883
:10351000E5350008ED35000805360008F5350008EA
:1035200005360008FD3500083F236CE006236AE0FD
:103530005B2368E04F2366E0662364E06D2362E06E
:103540007D2360E007235EE07F235CE06F235AE089
:10355000772358E0772356E07C2354E07C2352E025
:10356000392350E058234EE05E234CE05E234AE0CE
:10357000792348E0792346E0712344E0712342E057
:103580003D2340E03D233EE076233CE074233AE0D7
:10359000302338E0302336E01E2334E01E2332E0AF
:1035A000382330E038232EE055232CE055232AE041
:1035B000372328E0542326E03F2324E05C2322E045
:1035C000732320E073231EE067231CE067231AE0C7
:1035D000502318E0502316E06D2314E06D2312E011
:1035E000782310E078230EE03E230CE01C230AE051
:1035F0006A2308E06A2306E06E2304E06E2302E0FB
:10360000402300E0002318460C37BD4680BC7047BD
:1036100080B485B000AF0346B9607A60FB73FB7B72
:10362000002B00F0EA817B681B78DB005BB203F0C3
:1036300008035AB2BB681B785BB223F008035BB285
:1036400013435BB2DAB2BB681A707B681B789B00CD
:103650005BB203F008035AB2BB6802331B785BB25B
:1036600023F008035BB213435AB2BB680233D2B2F1
:103670001A707B681B785B005BB203F008035AB2D8
:10368000BB6804331B785BB223F008035BB21343BF
:103690005AB2BB680433D2B21A707B681B785BB233
:1036A00003F008035AB2BB6806331B785BB223F001
:1036B00008035BB213435AB2BB680633D2B21A7026
:1036C0007B681B785B105BB203F008035AB2BB68DF
:1036D00008331B785BB223F008035BB213435AB282
:1036E000BB680833D2B21A707B681B789B105BB240
:1036F00003F008035AB2BB680A331B785BB223F0AD
:1037000008035BB213435AB2BB680A33D2B21A70D1
:103710007B681B78DB105BB203F008035AB2BB680E
:103720000C331B785BB223F008035BB213435AB22D
:10373000BB680C33D2B21A707B681B781B115BB26A
:1037400003F008035AB2BB680E331B785BB223F058
:1037500008035BB213435AB2BB680E33D2B21A707D
:103760007B6801331B785BB203F001035AB2BB687C
:1037700001331B785BB223F001035BB213435AB2EF
:10378000BB680133D2B21A707B6801331B785B10BF
:103790005BB203F001035AB2BB6803331B785BB220
:1037A00023F001035BB213435AB2BB680333D2B2B6
:1037B0001A707B6801331B789B105BB203F0010326
:1037C0005AB2BB6805331B785BB223F001035BB2CE
:1037D00013435AB2BB680533D2B21A707B68013307
:1037E0001B78DB105BB203F001035AB2BB680733EE
:1037F0001B785BB223F001035BB213435AB2BB6880
:103800000733D2B21A707B6801331B781B115BB28D
:1038100003F001035AB2BB6809331B785BB223F093
:1038200001035BB213435AB2BB680933D2B21A70B8
:103830007B6801331B785B115BB203F001035AB262
:10384000BB680B331B785BB223F001035BB21343FD
:103850005AB2BB680B33D2B21A707B6801331B7843
:103860009B115BB203F001035AB2BB680D331B78A6
:103870005BB223F001035BB213435AB2BB680D3352
:10388000D2B21A707B6801331B78DB09DBB25AB203
:10389000BB680F331B785BB223F001035BB21343A9
:1038A0005AB2BB680F33D2B21A707B6802331B78EE
:1038B0005B005BB203F002035AB2BB6801331B78B2
:1038C0005BB223F002035BB213435AB2BB6801330D
:1038D000D2B21A707B6802331B785BB203F002032A
:1038E0005AB2BB6803331B785BB223F002035BB2AE
:1038F00013435AB2BB680333D2B21A707B680233E7
:103900001B785B105BB203F002035AB2BB6805334D
:103910001B785BB223F002035BB213435AB2BB685D
:103920000533D2B21A707B6802331B789B105BB2EE
:1039300003F002035AB2BB6807331B785BB223F073
:1039400002035BB213435AB2BB680733D2B21A7098
:103950007B6802331B78DB105BB203F002035AB2C0
:10396000BB6809331B785BB223F002035BB21343DD
:103970005AB2BB680933D2B21A707B6802331B7823
:103980001B115BB203F002035AB2BB680B331B7806
:103990005BB223F002035BB213435AB2BB680B3332
:1039A000D2B21A707B6802331B785B115BB203F0F2
:1039B00002035AB2BB680D331B785BB223F00203DB
:1039C0005BB213435AB2BB680D33D2B21A707B6834
:1039D00002331B789B115BB203F002035AB2BB683F
:1039E0000F331B785BB223F002035BB213435AB26E
:1039F000BB680F33D2B21A70E4E17B681B785BB20C
:103A000003F001035AB2BB681B785BB223F00103D9
:103A10005BB213435BB2DAB2BB681A707B681B7887
:103A20005B105BB203F001035AB2BB6802331B7830
:103A30005BB223F001035BB213435AB2BB6802339B
:103A4000D2B21A707B681B789B105BB203F0010343
:103A50005AB2BB6804331B785BB223F001035BB23C
:103A600013435AB2BB680433D2B21A707B681B7816
:103A7000DB105BB203F001035AB2BB6806331B785C
:103A80005BB223F001035BB213435AB2BB68063347
:103A9000D2B21A707B681B781B115BB203F0010372
:103AA0005AB2BB6808331B785BB223F001035BB2E8
:103AB00013435AB2BB680833D2B21A707B681B78C2
:103AC0005B115BB203F001035AB2BB680A331B7887
:103AD0005BB223F001035BB213435AB2BB680A33F3
:103AE000D2B21A707B681B789B115BB203F00103A2
:103AF0005AB2BB680C331B785BB223F001035BB294
:103B000013435AB2BB680C33D2B21A707B681B786D
:103B1000DB09DBB25AB2BB680E331B785BB223F011
:103B200001035BB213435AB2BB680E33D2B21A70B0
:103B30007B6801331B785B005BB203F002035AB26F
:103B4000BB681B785BB223F002035BB213435BB22A
:103B5000DAB2BB681A707B6801331B785BB203F082
:103B600002035AB2BB6802331B785BB223F0020334
:103B70005BB213435AB2BB680233D2B21A707B688D
:103B800001331B785B105BB203F002035AB2BB68CF
:103B900004331B785BB223F002035BB213435AB2C7
:103BA000BB680433D2B21A707B6801331B789B1058
:103BB0005BB203F002035AB2BB6806331B785BB2F8
:103BC00023F002035BB213435AB2BB680633D2B28E
:103BD0001A707B6801331B78DB105BB203F00203C1
:103BE0005AB2BB6808331B785BB223F002035BB2A6
:103BF00013435AB2BB680833D2B21A707B680133E0
:103C00001B781B115BB203F002035AB2BB680A3384
:103C10001B785BB223F002035BB213435AB2BB685A
:103C20000A33D2B21A707B6801331B785B115BB226
:103C300003F002035AB2BB680C331B785BB223F06B
:103C400002035BB213435AB2BB680C33D2B21A7090
:103C50007B6801331B789B115BB203F002035AB2FD
:103C6000BB680E331B785BB223F002035BB21343D5
:103C70005AB2BB680E33D2B21A707B6802331B781B
:103C80009B005BB203F004035AB2BB681B785BB2C3
:103C900023F004035BB213435BB2DAB2BB681A7061
:103CA0007B6802331B785B005BB203F004035AB2FB
:103CB000BB6802331B785BB223F004035BB213438F
:103CC0005AB2BB680233D2B21A707B6802331B78D7
:103CD0005BB203F004035AB2BB6804331B785BB2D7
:103CE00023F004035BB213435AB2BB680433D2B26D
:103CF0001A707B6802331B785B105BB203F004031D
:103D00005AB2BB6806331B785BB223F004035BB284
:103D100013435AB2BB680633D2B21A707B680233BF
:103D20001B789B105BB203F004035AB2BB680833E4
:103D30001B785BB223F004035BB213435AB2BB6837
:103D40000833D2B21A707B6802331B78DB105BB287
:103D500003F004035AB2BB680A331B785BB223F04A
:103D600004035BB213435AB2BB680A33D2B21A706F
:103D70007B6802331B781B115BB203F004035AB259
:103D8000BB680C331B785BB223F004035BB21343B4
:103D90005AB2BB680C33D2B21A707B6802331B78FC
:103DA0005B115BB203F004035AB2BB680E331B789D
:103DB0005BB223F004035BB213435AB2BB680E3309
:103DC000D2B21A7000BF1437BD4680BC704780B5B0
:103DD00088B000AFF8600B467A60FB720023FB618D
:103DE0000023BB613FE0BA69FB6913441A467B6854
:103DF00013441B782E2B11D1BB69013B20333B446C
:103E000013F80C2CBB69013B62F07F02D2B2203365
:103E10003B4403F80C2CFB690133FB61BA69FB6975
:103E200013441A467B6813441B78002B12D0BA69DE
:103E3000FB6913441A467B6813441B781846FFF746
:103E4000CBFA0346194607F11402BB6913440A462C
:103E50001A7005E007F11402BB69134400221A70BE
:103E6000BB690133BB61BA69FB69D31A022BBADDA6
:103E7000FB6803F1170107F11402FB7A1846FFF7FC
:103E8000C7FB8F21F868FFF7EAF900BF2037BD466E
:103E900080BD000080B500AF084B1B68074A43F0A7
:103EA00010031360032000F05DFD0F20FEF7BAFD44
:103EB000FEF780FD0023184680BD00BF00200240B1
:103EC00080B400AF054B1B781A46054B1B681344A2
:103ED000034A136000BFBD4680BC704750000020FD
:103EE0000C08002080B400AF024B1B681846BD468A
:103EF00080BC70470C08002080B586B000AF7860A9
:103F00000023FB7500233B610023BB600023FB60A3
:103F10007B68002B01D10123CEE07B689B68002BDE
:103F20007B689B6A002B09D17B680022DA627B6880
:103F3000002283F824207868FEF7D2F8786800F031
:103F400011FB0346FB757B689B6A03F01003002B93
:103F500040F0A980FB7D002B40F0A5807B689B6A28
:103F600023F4885323F0020343F002027B689A6231
:103F70007B685A687B681B6851498B420AD17B6811
:103F8000DB69B3F5402F02D07B68DB6904E04FF4B6
:103F9000002301E07B68DB691A437B681B7B5B00C5
:103FA0001343BA681343BB607B689B68B3F5807F9B
:103FB00003D07B689B68012B02D14FF4807300E033
:103FC00000233A6913433B617B681B7D012B19D1A8
:103FD0007B681B7B002B09D17B689B69013B5A03E3
:103FE0003B69134343F400633B610BE07B689B6ACE
:103FF00043F020027B689A627B68DB6A43F001022F
:104000007B68DA627B681B685B6823F469417B68C4
:104010001B683A690A435A607B681B689A68294B97
:1040200013407A681268B9680B4393607B689B6899
:10403000B3F5807F03D07B689B68012B04D17B683C
:104040001B69013B1B05FB607B681B68DB6A23F473
:1040500070017B681B68FA680A43DA627B681B6838
:104060009A68194B1340BA689A420BD17B680022B8
:10407000DA627B689B6A23F0030343F001027B68EA
:104080009A6218E07B689B6A23F0120343F01002E7
:104090007B689A627B68DB6A43F001027B68DA62C4
:1040A0000123FB7507E07B689B6A43F010027B6885
:1040B0009A620123FB75FB7D18461837BD4680BD0B
:1040C000003C0140FDF7E1FFFE0E1FFF80B586B00A
:1040D00000AFF860B9607A600023FB75FB681B686D
:1040E000644A934204D0FB681B68634A934206D13A
:1040F000604B5B6803F47023002B40F0B380FB68D7
:1041000093F82430012B01D10223AEE0FB68012299
:1041100083F82420F86800F0CBF90346FB75FB7D9B
:10412000002B40F09A80FB689B6A23F4706323F0B5
:10413000010343F48072FB689A62FB681B684E4A75
:10414000934205D14B4B5B6803F47023002B15D1D0
:10415000FB689B6A23F48012FB689A62FB681B6809
:104160005B6803F48063002B26D0FB689B6A23F412
:10417000405343F48052FB689A621DE0FB689B6ADF
:1041800043F48012FB689A62FB681B68394A9342C9
:1041900004D0FB681B68384A93420DD1354B5B68ED
:1041A00003F48063002B07D0FB689B6A23F4405321
:1041B00043F48052FB689A62FB689B6A03F4805365
:1041C000002B06D0FB68DB6A23F00602FB68DA628C
:1041D00002E0FB680022DA62FB68002283F82420F8
:1041E000FB681B6A254A9A62FB681B6A244ADA62EA
:1041F000FB681B6A234A1A63FB681B686FF00202A4
:104200001A60FB681B689A68FB681B6842F480723E
:104210009A60FB68186AFB681B684C331946BA68D9
:104220007B6800F04BFCFB681B689B6803F4602311
:10423000B3F5602F08D1FB681B689A68FB681B68A0
:1042400042F4A0029A600FE0FB681B689A68FB6862
:104250001B6842F480129A6006E0FB68002283F833
:10426000242001E00123FB75FB7D18461837BD466D
:1042700080BD00BF0024014000280140E745000840
:10428000634600087F46000880B483B000AF7860C2
:1042900000BF0C37BD4680BC704780B483B000AF10
:1042A000786000BF0C37BD4680BC704780B483B0D7
:1042B00000AF786000BF0C37BD4680BC704700007F
:1042C00080B485B000AF786039600023FB730023B1
:1042D000BB607B6893F82430012B01D10223DCE022
:1042E0007B68012283F824203B685B68062B1CD87E
:1042F0007B681B68596B3B685A6813469B001344E4
:10430000053B1F2202FA03F3DB4319403B681868A0
:104310003B685A6813469B001344053B00FA03F2BE
:104320007B681B680A435A633CE03B685B680C2B64
:104330001CD87B681B68196B3B685A6813469B0046
:104340001344233B1F2202FA03F3DB4319403B686B
:1043500018683B685A6813469B001344233B00FAD5
:1043600003F27B681B680A431A631BE07B681B68C7
:10437000D96A3B685A6813469B001344413B1F228D
:1043800002FA03F3DB4319403B6818683B685A683C
:1043900013469B001344413B00FA03F27B681B6801
:1043A0000A43DA623B681B68092B1CD97B681B68CF
:1043B000D9683B681A6813465B0013441E3B07220A
:1043C00002FA03F3DB4319403B6898683B681A68BC
:1043D00013465B0013441E3B00FA03F27B681B6824
:1043E0000A43DA6019E07B681B6819693B681A6840
:1043F00013465B001344072202FA03F3DB43194020
:104400003B6898683B681A6813465B00134400FADF
:1044100003F27B681B680A431A613B681B68102B18
:1044200003D03B681B68112B32D17B681B681D4A87
:10443000934225D17B681B689B6803F40003002B23
:1044400026D17B681B689A687B681B6842F400026F
:104450009A603B681B68102B1AD1134B1B68134AD8
:10446000A2FB03239A0C13469B0013445B00BB6022
:1044700002E0BB68013BBB60BB68002BF9D107E0E1
:104480007B689B6A43F020027B689A620123FB737E
:104490007B68002283F82420FB7B18461437BD4636
:1044A00080BC7047002401404800002083DE1B438D
:1044B00080B584B000AF78600023FB600023BB6050
:1044C0007B681B689B6803F00103012B40D07B686D
:1044D0001B689A687B681B6842F001029A601F4B58
:1044E0001B681F4AA2FB03239B0CBB6002E0BB6856
:1044F000013BBB60BB68002BF9D1FFF7F3FCF86010
:104500001FE0FFF7EFFC0246FB68D31A022B18D915
:104510007B681B689B6803F00103012B11D07B684B
:104520009B6A43F010027B689A627B68DB6A43F007
:1045300001027B68DA627B68002283F82420012371
:1045400007E07B681B689B6803F00103012BD8D14F
:10455000002318461037BD4680BD00BF480000202C
:1045600083DE1B4380B584B000AF78600023FB601E
:104570007B681B689B6803F00103012B2ED17B68CD
:104580001B689A687B681B6822F001029A60FFF73B
:10459000A9FCF8601BE0FFF7A5FC0246FB68D31AF4
:1045A000022B14D97B681B689B6803F00103012B65
:1045B0000DD17B689B6A43F010027B689A627B682E
:1045C000DB6A43F001027B68DA62012307E07B6863
:1045D0001B689B6803F00103012BDCD00023184605
:1045E0001037BD4680BD80B584B000AF78607B6871
:1045F0005B6AFB60FB689B6A03F05003002B27D1CA
:10460000FB689B6A43F40072FB689A62FB681B6854
:104610009B6803F46023B3F5602F15D1FB681B7B07
:10462000002B11D1FB689B6A23F48072FB689A62AD
:10463000FB689B6A03F48053002B05D1FB689B6ADF
:1046400043F00102FB689A62F868FFF71DFE04E080
:10465000FB681B6A1B6B7868984700BF1037BD4624
:1046600080BD80B584B000AF78607B685B6AFB601A
:10467000F868FFF712FE00BF1037BD4680BD80B559
:1046800084B000AF78607B685B6AFB60FB689B6A04
:1046900043F04002FB689A62FB68DB6A43F0040265
:1046A000FB68DA62F868FFF701FE00BF1037BD460D
:1046B00080BD000090B587B000AF78600023FB7527
:1046C0000023FB607B6893F82430012B01D1022387
:1046D00097E07B68012283F824207868FFF742FF87
:1046E0000346FB757868FFF7E3FE0346FB75FB7D29
:1046F000002B40F081807B689B6A23F4885323F071
:10470000020343F002027B689A62404B1C6802205D
:1047100001F0AAFE0346B4FBF3F35B00FB6002E08A
:10472000FB68013BFB60FB68002BF9D17B681B68D1
:104730009A687B681B6842F008029A60FFF7D2FB18
:1047400038611BE0FFF7CEFB02463B69D31A0A2B08
:1047500014D97B681B689B6803F00803002B0DD0FD
:104760007B689B6A23F0120343F010027B689A6215
:104770007B68002283F82420012342E07B681B68C9
:104780009B6803F00803002BDCD17B681B689A68E8
:104790007B681B6842F004029A60FFF7A3FB386154
:1047A0001BE0FFF79FFB02463B69D31A0A2B14D983
:1047B0007B681B689B6803F00403002B0DD07B68AB
:1047C0009B6A23F0120343F010027B689A627B68B5
:1047D000002283F82420012313E07B681B689B6878
:1047E00003F00403002BDCD17B689B6A23F00303F6
:1047F00043F001027B689A627B68002283F82420E0
:10480000FB7D18461C37BD4690BD00BF4800002008
:1048100080B485B000AF78607B6803F00703FB606D
:104820000C4BDB68BB60BA684FF6FF031340BB60FC
:10483000FB681A02BB68134343F0BF6343F40033C1
:10484000BB60044ABB68D36000BF1437BD4680BC60
:10485000704700BF00ED00E080B400AF044BDB68A0
:104860001B0A03F007031846BD4680BC704700BF13
:1048700000ED00E080B483B000AF0346FB7197F910
:104880000730002B0BDBFB7903F01F02064997F979
:1048900007305B09012000FA02F241F8232000BF33
:1048A0000C37BD4680BC704700E100E080B483B0A7
:1048B00000AF03463960FB7197F90730002B0ADB24
:1048C0003B68DAB20C4997F907301201D2B20B44B7
:1048D00083F800230AE03B68DAB20849FB7903F069
:1048E0000F03043B1201D2B20B441A7600BF0C37FF
:1048F000BD4680BC704700BF00E100E000ED00E075
:1049000080B489B000AFF860B9607A60FB6803F0EA
:104910000703FB61FB69C3F10703042B28BF0423D2
:10492000BB61FB690433062B02D9FB69033B00E042
:1049300000237B614FF0FF32BB6902FA03F3DA43D5
:10494000BB681A407B699A404FF0FF317B6901FADE
:1049500003F3D9437B680B40134318462437BD4605
:1049600080BC704780B582B000AF78607868FFF790
:104970004FFF00BF0837BD4680BD80B586B000AF91
:104980000346B9607A60FB7300237B61FFF764FF25
:1049900078617A68B9687869FFF7B2FF024697F9DB
:1049A0000F3011461846FFF781FF00BF1837BD468C
:1049B00080BD80B582B000AF0346FB7197F9073028
:1049C0001846FFF757FF00BF0837BD4680BD0000FF
:1049D00080B485B000AF78600023FB607B68002B5B
:1049E00001D1012359E07B681B681A462D4B9A427E
:1049F0000FD87B681B681A462B4B13442B4AA2FB2B
:104A000003231B099A007B681A647B68284ADA63CF
:104A10000EE07B681B681A46264B1344234AA2FB10
:104A200003231B099A007B681A647B68224ADA63B5
:104A30007B68022283F821207B681B681B68FB606F
:104A4000FB6823F47F5323F03003FB607B685A68D4
:104A50007B689B681A437B68DB681A437B681B6929
:104A60001A437B685B691A437B689B691A437B68BE
:104A7000DB691343FA681343FB607B681B68FA68C1
:104A80001A607B6800229A637B68012283F82120E8
:104A90007B68002283F82020002318461437BD4687
:104AA00080BC704707040240F8FFFDBFCDCCCCCCE2
:104AB00000000240F8FBFDBF0004024080B586B054
:104AC00000AFF860B9607A603B600023FB75FB685B
:104AD00093F82030012B01D102234BE0FB68012227
:104AE00083F82020FB6893F82130DBB2012B3AD108
:104AF000FB68022283F82120FB6800229A63FB688E
:104B00001B681A68FB681B6822F001021A603B6888
:104B10007A68B968F86800F06DFAFB68DB6A002B08
:104B200008D0FB681B681A68FB681B6842F00E021D
:104B30001A600FE0FB681B681A68FB681B6822F0AC
:104B400004021A60FB681B681A68FB681B6842F065
:104B50000A021A60FB681B681A68FB681B6842F04F
:104B600001021A6005E0FB68002283F8202002237E
:104B7000FB75FB7D18461837BD4680BD80B584B0F7
:104B800000AF78607B68DB6B1B68FB607B681B6831
:104B90001B68BB607B681B6C04229A40FB68134057
:104BA000002B00F0F180BB6803F00403002B00F041
:104BB000EB807B681B681B6803F02003002B07D188
:104BC0007B681B681A687B681B6822F004021A6005
:104BD0007B681B681A465F4B9A4258D97B681B68F2
:104BE0005D4A93424FD07B681B685C4A934248D031
:104BF0007B681B685A4A934240D07B681B68594ABD
:104C0000934238D07B681B68574A934230D07B6808
:104C10001B68564A934228D07B681B684D4A9342D2
:104C200020D07B681B68524A934219D07B681B686E
:104C3000504A934212D07B681B684F4A93420AD075
:104C40007B681B684D4A934202D14FF480431BE0BE
:104C50004FF4802318E04FF4806315E0402313E005
:104C6000042311E04FF080630EE04FF480030BE06B
:104C70004FF4802308E04FF4804305E04FF4806355
:104C800002E0402300E004233D4A536057E07B6884
:104C90001B68314A93424FD07B681B682F4A93426E
:104CA00048D07B681B682E4A934240D07B681B68C3
:104CB0002C4A934238D07B681B682B4A934230D0F1
:104CC0007B681B68294A934228D07B681B68214A6D
:104CD000934220D07B681B68254A934219D07B6899
:104CE0001B68244A934212D07B681B68224A934275
:104CF0000AD07B681B68214A934202D14FF480435B
:104D00001BE04FF4802318E04FF4806315E040234C
:104D100013E0042311E04FF080630EE04FF48003B2
:104D20000BE04FF4802308E04FF4804305E04FF49C
:104D3000806302E0402300E00423124A53607B6852
:104D4000DB6A002B00F036817B68DB6A7868984765
:104D500030E100BF80000240080002401C00024019
:104D60003000024044000240580002406C00024003
:104D7000080402401C040240300402404404024083
:104D800000040240000002407B681B6C02229A4033
:104D9000FB681340002B00F0DD80BB6803F00203CA
:104DA000002B00F0D7807B681B681B6803F0200392
:104DB000002B0BD17B681B681A687B681B6822F08C
:104DC0000A021A607B68012283F821207B681B6835
:104DD0001A467B4B9A4258D97B681B68794A9342A2
:104DE0004FD07B681B68784A934248D07B681B6829
:104DF000764A934240D07B681B68754A934238D00C
:104E00007B681B68734A934230D07B681B68724A88
:104E1000934228D07B681B68694A934220D07B6804
:104E20001B686E4A934219D07B681B686C4A934298
:104E300012D07B681B686B4A93420AD07B681B6860
:104E4000694A934202D14FF400531BE04FF4003300
:104E500018E04FF4007315E0202313E0022311E063
:104E60004FF000730EE04FF400130BE04FF40033EB
:104E700008E04FF4005305E04FF4007302E02023F4
:104E800000E00223594A536057E07B681B684D4A93
:104E900093424FD07B681B684B4A934248D07B6853
:104EA0001B684A4A934240D07B681B68484A934239
:104EB00038D07B681B68474A934230D07B681B68B8
:104EC000454A934228D07B681B683D4A934220D0D4
:104ED0007B681B68414A934219D07B681B68404A33
:104EE000934212D07B681B683E4A93420AD07B688B
:104EF0001B683D4A934202D14FF400531BE04FF42C
:104F0000003318E04FF4007315E0202313E0022370
:104F100011E04FF000730EE04FF400130BE04FF47C
:104F2000003308E04FF4005305E04FF4007302E053
:104F3000202300E002232E4A53607B68002283F87E
:104F400020207B689B6A002B34D07B689B6A786842
:104F500098472FE07B681B6C08229A40FB6813403F
:104F6000002B28D0BB6803F00803002B23D07B68FC
:104F70001B681A687B681B6822F00E021A607B6847
:104F80001A6C7B68DB6B012101FA02F25A607B68C4
:104F900001229A637B68012283F821207B6800222A
:104FA00083F820207B681B6B002B04D07B681B6B75
:104FB0007868984700BF00BF1037BD4680BD00BF6E
:104FC00080000240080002401C0002403000024005
:104FD00044000240580002406C00024008040240B5
:104FE0001C04024030040240440402400004024019
:104FF0000000024080B485B000AFF860B9607A600C
:105000003B60FB681A6CFB68DB6B012101FA02F262
:105010005A60FB681B683A685A60FB685B68102B33
:1050200008D1FB681B687A689A60FB681B68BA68DD
:10503000DA6007E0FB681B68BA689A60FB681B6867
:105040007A68DA6000BF1437BD4680BC7047000044
:10505000F0B587B000AFF860B960C7E9002301235D
:10506000FB750023BB7500237B752F4B1B7E012B2B
:1050700001D1022354E02C4B01221A764CF250301D
:1050800000F0A8F80346FB75FB7D002B44D1FB68BC
:10509000012B02D101237B7507E0FB68022B02D1B3
:1050A00002237B7501E004237B750023BB752DE093
:1050B000BB7D5A00BB6802EB030CBB7D1901D7E92D
:1050C0000023C1F12006A1F1200022FA01F403FA25
:1050D00006F6344323FA00F0044323FA01F5A3B2A1
:1050E0001946604600F05AF84CF2503000F072F861
:1050F0000346FB750D4B1B690C4A23F0010313613A
:10510000FB7D002B07D1BB7D0133BB75BA7D7B7D59
:105110009A42CDD300E000BF034B00221A76FB7DFC
:1051200018461C37BD46F0BD100800200020024084
:1051300080B483B000AF0023FB710D4B1B6903F0FB
:105140008003002B0DD00A4B0A4A5A60084B0A4ACA
:105150005A60074B1B6903F08003002B01D0012329
:10516000FB71FB7918460C37BD4680BC704700BF09
:105170000020024023016745AB89EFCD80B400AF2A
:10518000054B1B69044A43F0800313610023184652
:10519000BD4680BC704700BF0020024080B483B091
:1051A00000AF78600B467B80084B0022DA61084B29
:1051B0001B69074A43F0010313617B687A881A80F0
:1051C00000BF0C37BD4680BC704700BF10080020F0
:1051D0000020024080B584B000AF7860FEF782FE08
:1051E000F86010E07B68B3F1FF3F0CD07B68002BC8
:1051F00007D0FEF777FE0246FB68D31A7A689A4218
:1052000001D2032325E0154BDB6803F00103002BDB
:10521000E8D1124BDB6803F02003002B02D00F4BC8
:105220002022DA600D4BDB6803F01003002B0BD15A
:105230000A4BDB6903F00103002B05D1074BDB6848
:1052400003F00403002B03D000F00AF8012300E070
:10525000002318461037BD4680BD00BF0020024025
:1052600080B483B000AF00237B60234BDB6803F086
:105270001003002B09D0214BDB6943F002031F4AC6
:10528000D3617B6843F010037B601B4BDB6803F04A
:105290000403002B09D0194BDB6943F00103174AC3
:1052A000D3617B6843F004037B60134BDB6903F03D
:1052B0000103002B0BD0114BDB6943F004030F4AB1
:1052C000D3610D4BDB690C4A23F00103D3617B688A
:1052D00040F20112934206D1074BDB69064A23F0E4
:1052E0000103D36102E0044A7B68D36000BF0C373E
:1052F000BD4680BC704700BF00200240100800205F
:1053000080B584B000AF786039600123FB7300235F
:10531000BB602F4B1B7E012B01D1022353E02C4B92
:1053200001221A767B681B68022B16D14CF2503092
:10533000FFF750FF0346002B41D1012000F04CF84D
:105340004CF25030FFF746FF0346FB73214B1B69BD
:10535000204A23F00403136131E04CF25030FFF790
:1053600039FF0346002B2AD13B684FF0FF321A6009
:105370007B689B68BB6019E0B86800F049F84CF2A4
:105380005030FFF727FF0346FB73124B1B69114A8E
:1053900023F002031361FB7B002B03D03B68BA6848
:1053A0001A600CE0BB6803F50063BB607B68DB68D8
:1053B000DA027B689B681344BA689A42DCD3044BD8
:1053C00000221A76FB7B18461037BD4680BD00BF11
:1053D000100800200020024080B483B000AF786045
:1053E000094B0022DA61094B1B69084A43F00403A8
:1053F0001361064B1B69054A43F04003136100BF6C
:105400000C37BD4680BC70471008002000200240C9
:1054100080B483B000AF78600B4B0022DA610B4B95
:105420001B690A4A43F002031361084A7B6853610F
:10543000064B1B69054A43F04003136100BF0C375C
:10544000BD4680BC704700BF10080020002002400D
:1054500080B48BB000AF7860396000237B6200239A
:105460003B6279E101227B6A02FA03F3FB613B684C
:105470001B68FA691340BB61BA69FB699A4240F044
:1054800068813B685B68964A93425ED0944A934237
:1054900075D8944A934258D0924A93426FD8924A10
:1054A000934252D0904A934269D8904A93424CD04A
:1054B0008E4A934263D88E4A934246D08C4A934296
:1054C0005DD8122B2AD8122B59D801A252F823F0FA
:1054D0004B55000825550008375500087955000838
:1054E0007F5500087F5500087F5500087F5500084C
:1054F0007F5500087F5500087F5500087F5500083C
:105500007F5500087F5500087F5500087F5500082B
:105510007F5500082D55000841550008754A9342F3
:1055200013D02CE03B68DB683B6229E03B68DB681A
:1055300004333B6224E03B68DB6808333B621FE0D6
:105540003B68DB680C333B621AE03B689B68002BCE
:1055500002D104233B6213E03B689B68012B05D119
:1055600008233B627B68FA691A6109E008233B6201
:105570007B68FA695A6103E000233B6200E000BFE8
:10558000BB69FF2B01D87B6801E07B6804337B613A
:10559000BB69FF2B02D87B6A9B0002E07B6A083B59
:1055A0009B003B617B691A680F213B6901FA03F399
:1055B000DB431A40396A3B6901FA03F31A437B69FA
:1055C0001A603B685B6803F08053002B00F0C180D9
:1055D000494B9B69484A43F001039361464B9B69E1
:1055E00003F00103BB60BB68444A7B6A9B0802333B
:1055F00052F82330FB607B6A03F003039B000F2209
:1056000002FA03F3DB43FA681340FB607B683C4A11
:1056100093421FD07B683B4A934219D07B683A4A39
:10562000934213D07B68394A93420DD07B68384A45
:10563000934207D07B68374A934201D105230AE0A1
:10564000062308E0042306E0032304E0022302E02B
:10565000012300E000237A6A02F0030292009340E3
:10566000FA681343FB6025497B6A9B080233FA689A
:1056700041F823203B685B6803F48013002B06D0BD
:10568000254B9A682449BB6913438B6006E0224B83
:105690009A68BB69DB43204913408B603B685B68B9
:1056A00003F40013002B06D01B4BDA681A49BB69C0
:1056B0001343CB6006E0184BDA68BB69DB4316493D
:1056C0001340CB603B685B6803F40033002B25D0AC
:1056D000114B5A681049BB6913434B6025E000BF6A
:1056E00000003210000031100000221000002110D4
:1056F00000001210000011100010024000000140D4
:1057000000080140000C014000100140001401405D
:1057100000180140001C014000040140154B5A686C
:10572000BB69DB43134913404B603B685B6803F480
:105730008033002B06D00F4B1A680E49BB69134308
:105740000B6006E00B4B1A68BB69DB430949134049
:105750000B607B6A01337B623B681A687B6A22FAC2
:1057600003F3002B7FF47EAE00BF00BF2C37BD4695
:1057700080BC70470004014080B483B000AF786003
:105780000B467B8013467B707B78002B03D07A8896
:105790007B681A6103E07B881A047B681A6100BF8A
:1057A0000C37BD4680BC704780B485B000AF7860D0
:1057B0000B467B807B68DB68FB607A88FB68134064
:1057C0001A04FB68D9437B880B401A437B681A6133
:1057D00000BF1437BD4680BC7047000080B584B060
:1057E00000AF78607B68002B01D101232BE17B683F
:1057F00093F83D30DBB2002B06D17B68002283F8A2
:105800003C207868FCF736FE7B68242283F83D2034
:105810007B681B681A687B681B6822F001021A60AB
:105820007B681B681A687B681B6842F400421A6038
:105830007B681B681A687B681B6822F400421A6048
:1058400000F0E6FCF8607B685B68814A934207D809
:10585000FB68804A934294BF01230023DBB206E039
:10586000FB687D4A934294BF01230023DBB2002BE7
:1058700001D00123E7E0FB68784AA2FB03239B0CDD
:10588000BB607B681B685B6823F03F017B681B681B
:10589000BA680A435A607B681B681B6A23F03F01A1
:1058A0007B685B686A4A934202D8BB68013309E0AF
:1058B000BB684FF4967202FB03F3694AA2FB032311
:1058C0009B0901337A6812680B4313627B681B687B
:1058D000DB6923F44F4222F0FF027B685B685C497E
:1058E0008B4219D8FB68591E7B685B685B00B1FB73
:1058F000F3F3591C40F6FC730B40002B0AD0FB68F5
:10590000591E7B685B685B00B1FBF3F30133C3F3A3
:105910000B0351E004234FE07B689B68002B11D1FF
:10592000FB68581E7B6859680B465B000B44B0FB54
:10593000F3F30133C3F30B03002B0CBF012300234C
:10594000DBB212E0FB68581E7B6859680B469B006F
:105950000B4499000B44B0FBF3F30133C3F30B0387
:10596000002B0CBF01230023DBB2002B01D001234D
:1059700022E07B689B68002B0ED1FB68581E7B6879
:1059800059680B465B000B44B0FBF3F30133C3F3E0
:105990000B0343F400430FE0FB68581E7B68596813
:1059A0000B469B000B4499000B44B0FBF3F301330F
:1059B000C3F30B0343F44043796809681343CB6195
:1059C0007B681B681B6823F0C0017B68DA697B6811
:1059D0001B6A1A437B681B680A431A607B681B6852
:1059E0009B6823F4034323F0FF037A6811697A6804
:1059F000D26811437A6812680B4393607B681B6816
:105A0000DB6823F0FF017B685A697B689B691A4356
:105A10007B681B680A43DA607B681B681A687B68CE
:105A20001B6842F001021A607B6800221A647B68DE
:105A3000202283F83D207B6800221A637B680022C5
:105A400083F83E20002318461037BD4680BD00BFB6
:105A5000A08601007F841E00FF083D0083DE1B43FB
:105A6000D34D621080B400AF034B01221A6000BF17
:105A7000BD4680BC704700BF20000E4280B586B096
:105A800000AF78607B68002B01D1012372E27B6854
:105A90001B6803F00103002B00F08780924B5B68CA
:105AA00003F00C03042B0CD08F4B5B6803F00C034A
:105AB000082B12D18C4B5B6803F48033B3F5803F25
:105AC0000BD1894B1B6803F40033002B6CD07B682F
:105AD0005B68002B68D101234CE27B685B68B3F5FF
