:020000040800F2
:1000000000C0002035E3000881DD000889DD00081C
:1000100091DD000899DD0008A1DD00080000000066
:10002000000000000000000000000000C1DB01082B
:10003000A9DD000800000000A1DD0108E9DD0108DC
:100040007DE300087DE300087DE300087DE3000810
:100050007DE300087DE300087DE300087DE3000800
:100060007DE300087DE300087DE30008B5DD0008BE
:100070007DE300087DE300087DE30008C9DD00089A
:10008000DDDD00087DE300087DE300087DE3000876
:100090007DE300087DE300087DE300087DE30008C0
:1000A0007DE300087DE300087DE300087DE30008B0
:1000B000F1DD00087DE300087DE300087DE3000832
:1000C0007DE300087DE300087DE300087DE3000890
:1000D0007DE300087DE300087DE300087DE3000880
:1000E0007DE300087DE300087DE300087DE3000870
:1000F0007DE300087DE300087DE300087DE3000860
:100100007DE300087DE300087DE300087DE300084F
:100110007DE300087DE3000805DE00087DE30008BC
:100120007DE300087DE300087DE300087DE300082F
:1001300000000000000000000000000000000000BF
:1001400000000000000000000000000000000000AF
:10015000000000000000000000000000000000009F
:10016000000000000000000000000000000000008F
:10017000000000000000000000000000000000007F
:10018000000000000000000000000000000000006F
:10019000000000000000000000000000000000005F
:1001A000000000000000000000000000000000004F
:1001B000000000000000000000000000000000003F
:1001C000000000000000000000000000000000002F
:1001D000000000000000000000000000000000001F
:0401E0005FF8E0F1F3
:1001F00010B5054C237833B9044B13B10448AFF361
:1002000000800123237010BD980200200000000030
:100210007016020808B5034B1BB103490348AFF33E
:10022000008008BD000000009C020020701602083B
:1002300010F8012B11F8013B012A28BF9A42F7D090
:10024000D01A7047034613F8012B002AFBD1181A65
:100250000138704781F0004102E000BF83F00043A5
:1002600030B54FEA41044FEA430594EA050F08BF51
:1002700090EA020F1FBF54EA000C55EA020C7FEA15
:10028000645C7FEA655C00F0E2804FEA5454D4EB92
:100290005555B8BF6D420CDD2C4480EA020281EA5C
:1002A000030382EA000083EA010180EA020281EA94
:1002B0000303362D88BF30BD11F0004F4FEA0131E6
:1002C0004FF4801C4CEA113102D0404261EB4101F5
:1002D00013F0004F4FEA03334CEA133302D052427B
:1002E00063EB430394EA050F00F0A780A4F1010437
:1002F000D5F1200E0DDB02FA0EFC22FA05F2801871
:1003000041F1000103FA0EF2801843FA05F3594156
:100310000EE0A5F120050EF1200E012A03FA0EFCD5
:1003200028BF4CF0020C43FA05F3C01851EBE371FF
:1003300001F0004507D54FF0000EDCF1000C7EEB1C
:1003400000006EEB0101B1F5801F1BD3B1F5001F5A
:100350000CD349085FEA30004FEA3C0C04F1010479
:100360004FEA445212F5800F80F09A80BCF1004FA2
:1003700008BF5FEA500C50F1000041EB045141EA24
:10038000050130BD5FEA4C0C404141EB0101013CED
:1003900028BFB1F5801FE9D291F0000F04BF0146DC
:1003A0000020B1FA81F308BF2033A3F10B03B3F1AE
:1003B00020020CDA0C3208DD02F1140CC2F10C023E
:1003C00001FA0CF021FA02F10CE002F11402D8BF9C
:1003D000C2F1200C01FA02F120FA0CFCDCBF41EA68
:1003E0000C019040E41AA2BF01EB0451294330BD37
:1003F0006FEA04041F3C1CDA0C340EDC04F1140414
:10040000C4F1200220FA04F001FA02F340EA0300EA
:1004100021FA04F345EA030130BDC4F10C04C4F130
:10042000200220FA02F001FA04F340EA0300294610
:1004300030BD21FA04F0294630BD94F0000F83F45A
:10044000801306BF81F480110134013D4EE77FEA3D
:10045000645C18BF7FEA655C29D094EA050F08BF89
:1004600090EA020F05D054EA000C04BF194610466A
:1004700030BD91EA030F1EBF0021002030BD5FEAAE
:10048000545C05D14000494128BF41F0004130BDD6
:1004900014F580043CBF01F5801130BD01F000452A
:1004A00045F0FE4141F470014FF0000030BD7FEA9D
:1004B000645C1ABF194610467FEA655C1CBF0B4698
:1004C000024650EA013406BF52EA033591EA030FAF
:1004D00041F4002130BD00BF90F0000F04BF0021A7
:1004E000704730B54FF4806404F132044FF00005DA
:1004F0004FF0000150E700BF90F0000F04BF002153
:10050000704730B54FF4806404F1320410F00045B8
:1005100048BF40424FF000013EE700BF42004FEAB3
:10052000E2014FEA31014FEA02701FBF12F07F4330
:1005300093F07F4F81F06051704732F07F4208BFE7
:10054000704793F07F4F04BF41F40021704730B5EE
:100550004FF4607401F0004521F000411CE700BF3A
:1005600050EA010208BF704730B54FF000050AE0BD
:1005700050EA010208BF704730B511F0004502D5BE
:10058000404261EB41014FF4806404F132045FEAC0
:10059000915C3FF4D8AE4FF003025FEADC0C18BF69
:1005A00003325FEADC0C18BF033202EBDC02C2F15B
:1005B000200300FA03FC20FA02F001FA03FE40EAED
:1005C0000E0021FA02F11444BDE600BF70B54FF0F1
:1005D000FF0C4CF4E06C1CEA11541DBF1CEA1355CF
:1005E00094EA0C0F95EA0C0F00F0DEF82C4481EA37
:1005F000030621EA4C5123EA4C5350EA013518BF57
:1006000052EA033541F4801143F4801338D0A0FB43
:1006100002CE4FF00005E1FB02E506F00042E0FBF0
:1006200003E54FF00006E1FB03569CF0000F18BFF6
:100630004EF0010EA4F1FF04B6F5007F64F540749E
:1006400004D25FEA4E0E6D4146EB060642EAC62131
:1006500041EA55514FEAC52040EA5E504FEACE2E9E
:10066000B4F1FD0C88BFBCF5E06F1ED8BEF1004FA1
:1006700008BF5FEA500E50F1000041EB045170BD1D
:1006800006F0004646EA010140EA020081EA030161
:10069000B4EB5C04C2BFD4EB0C0541EA045170BD5D
:1006A00041F480114FF0000E013C00F3AB8014F1D7
:1006B000360FDEBF002001F0004170BDC4F1000420
:1006C000203C35DA0C341BDC04F11404C4F12005A1
:1006D00000FA05F320FA04F001FA05F240EA0200FC
:1006E00001F0004221F0004110EBD37021FA04F632
:1006F00042EB06015EEA430E08BF20EAD37070BDEC
:10070000C4F10C04C4F1200500FA04F320FA05F04A
:1007100001FA04F240EA020001F0004110EBD3704C
:1007200041F100015EEA430E08BF20EAD37070BDBC
:10073000C4F1200500FA05F24EEA020E20FA04F395
:1007400001FA05F243EA020321FA04F001F0004144
:1007500021FA04F220EA020000EBD3705EEA430EB5
:1007600008BF20EAD37070BD94F0000F0FD101F0E4
:100770000046400041EB010111F4801F08BF013C1D
:10078000F7D041EA060195F0000F18BF704703F05B
:100790000046520043EB030313F4801F08BF013DE2
:1007A000F7D043EA0603704794EA0C0F0CEA13559E
:1007B00018BF95EA0C0F0CD050EA410618BF52EA58
:1007C0004306D1D181EA030101F000414FF000005E
:1007D00070BD50EA410606BF1046194652EA43066C
:1007E00019D094EA0C0F02D150EA013613D195EAE0
:1007F0000C0F05D152EA03361CBF104619460AD128
:1008000081EA030101F0004141F0FE4141F4700131
:100810004FF0000070BD41F0FE4141F4780170BD21
:1008200070B54FF0FF0C4CF4E06C1CEA11541DBF86
:100830001CEA135594EA0C0F95EA0C0F00F0A7F888
:10084000A4EB050481EA030E52EA03354FEA0131B5
:1008500000F088804FEA03334FF0805545EA1313C8
:1008600043EA12634FEA022245EA111545EA106590
:100870004FEA00260EF000419D4208BF964244F127
:10088000FD0404F5407402D25B084FEA3202B61A46
:1008900065EB03055B084FEA32024FF480104FF41A
:1008A000002CB6EB020E75EB030E22BFB61A75468E
:1008B00040EA0C005B084FEA3202B6EB020E75EB21
:1008C000030E22BFB61A754640EA5C005B084FEA89
:1008D0003202B6EB020E75EB030E22BFB61A754656
:1008E00040EA9C005B084FEA3202B6EB020E75EB61
:1008F000030E22BFB61A754640EADC0055EA060E22
:1009000018D04FEA051545EA16754FEA06164FEA64
:10091000C30343EA52734FEAC2025FEA1C1CC0D110
:1009200011F4801F0BD141EA00014FF000004FF09D
:10093000004CB6E711F4801F04BF01430020B4F15E
:10094000FD0C88BFBCF5E06F3FF6AFAEB5EB030C16
:1009500004BFB6EB020C5FEA500C50F1000041EB13
:10096000045170BD0EF0004E4EEA113114EB5C04E0
:10097000C2BFD4EB0C0541EA045170BD41F48011B3
:100980004FF0000E013C90E645EA060E8DE60CEABB
:10099000135594EA0C0F08BF95EA0C0F3FF43BAFD8
:1009A00094EA0C0F0AD150EA01347FF434AF95EA8F
:1009B0000C0F7FF425AF104619462CE795EA0C0F73
:1009C00006D152EA03353FF4FDAE1046194622E740
:1009D00050EA410618BF52EA43067FF4C5AE50EA1A
:1009E00041047FF40DAF52EA43057FF4EBAE12E70A
:1009F0004FF0FF3C06E000BF4FF0010C02E000BFEB
:100A00004FF0010C4DF804CD4FEA410C7FEA6C5CCD
:100A10004FEA430C18BF7FEA6C5C1BD001B050EA70
:100A2000410C0CBF52EA430C91EA030F02BF90EA5B
:100A3000020F0020704710F1000F91EA030F58BF1A
:100A4000994208BF90422CBFD8176FEAE37040F07C
:100A5000010070474FEA410C7FEA6C5C02D150EA1A
:100A6000013C07D14FEA430C7FEA6C5CD6D152EAD5
:100A7000033CD3D05DF8040B704700BF844610469A
:100A800062468C461946634600E000BF01B5FFF799
:100A9000B7FF002848BF10F1000F01BD4DF808ED69
:100AA000FFF7F4FF0CBF012000205DF808FB00BF3A
:100AB0004DF808EDFFF7EAFF34BF012000205DF894
:100AC00008FB00BF4DF808EDFFF7E0FF94BF0120E1
:100AD00000205DF808FB00BF4DF808EDFFF7CEFFE2
:100AE00094BF012000205DF808FB00BF4DF808ED21
:100AF000FFF7C4FF34BF012000205DF808FB00BFF2
:100B00004FEA410C7FEA6C5C02D150EA013C0AD109
:100B10004FEA430C7FEA6C5C02D152EA033C02D1FB
:100B20004FF0000070474FF0010070474FEA41025C
:100B300012F5001215D211D56FF47873B3EB62522F
:100B400012D94FEAC12343F0004343EA505311F056
:100B5000004F23FA02F018BF404270474FF00000E8
:100B6000704750EA013005D111F0004008BF6FF026
:100B7000004070474FF00000704700BF4A0011D29C
:100B800012F5001211D20DD56FF47873B3EB6252E7
:100B90000ED44FEAC12343F0004343EA505323FAF3
:100BA00002F070474FF00000704750EA013002D168
:100BB0004FF0FF3070474FF0000070474FEA41029E
:100BC000B2F1E04324BFB3F5001CDCF1FE5C0DD9AB
:100BD00001F0004C4FEAC0024CEA5070B2F1004FF5
:100BE00040EB830008BF20F00100704711F0804FF8
:100BF00021D113F13872BCBF01F00040704741F4BD
:100C000080114FEA5252C2F11802C2F1200C10FAC0
:100C10000CF320FA02F018BF40F001004FEAC123A4
:100C20004FEAD32303FA0CFC40EA0C0023FA02F348
:100C30004FEA4303CCE77FEA625307D150EA01331E
:100C40001EBF4FF0FE4040F44000704701F00040EE
:100C500040F0FE4040F40000704700BF80F00040CC
:100C600002E000BF81F0004142001FBF5FEA410384
:100C700092EA030F7FEA226C7FEA236C6AD04FEA84
:100C80001262D2EB1363C1BFD218414048404140C9
:100C9000B8BF5B42192B88BF704710F0004F40F47B
:100CA000000020F07F4018BF404211F0004F41F497
:100CB000000121F07F4118BF494292EA030F3FD063
:100CC000A2F1010241FA03FC10EB0C00C3F1200376
:100CD00001FA03F100F0004302D5494260EB400005
:100CE000B0F5000F13D3B0F1807F06D340084FEA70
:100CF000310102F10102FE2A51D2B1F1004F40EB65
:100D0000C25008BF20F0010040EA030070474900CC
:100D100040EB0000013A28BFB0F5000FEDD2B0FA69
:100D200080FCACF1080CB2EB0C0200FA0CF0AABF8C
:100D300000EBC25052421843BCBFD040184370472A
:100D400092F0000F81F4000106BF80F40000013230
:100D5000013BB5E74FEA41037FEA226C18BF7FEA07
:100D6000236C21D092EA030F04D092F0000F08BF49
:100D70000846704790EA010F1CBF0020704712F030
:100D80007F4F04D1400028BF40F00040704712F16F
:100D900000723CBF00F50000704700F0004343F0D4
:100DA000FE4040F4000070477FEA226216BF08460A
:100DB0007FEA23630146420206BF5FEA412390EACD
:100DC000010F40F4800070474FF0000304E000BFC3
:100DD00010F0004348BF40425FEA000C08BF704774
:100DE00043F0964301464FF000001CE050EA010238
:100DF00008BF70474FF000030AE000BF50EA01024D
:100E000008BF704711F0004302D5404261EB410139
:100E10005FEA010C02BF84460146002043F0B6435E
:100E200008BFA3F18053A3F50003BCFA8CF2083A83
:100E3000A3EBC25310DB01FA02FC634400FA02FC8C
:100E4000C2F12002BCF1004F20FA02F243EB020093
:100E500008BF20F00100704702F1200201FA02FCF5
:100E6000C2F1200250EA4C0021FA02F243EB0200E8
:100E700008BF20EADC7070474FF0FF0C1CEAD0522C
:100E80001EBF1CEAD15392EA0C0F93EA0C0F6FD0ED
:100E90001A4480EA010C400218BF5FEA41211ED0CB
:100EA0004FF0006343EA501043EA5111A0FB0131B7
:100EB0000CF00040B1F5000F3EBF490041EAD3718C
:100EC0005B0040EA010062F17F02FD2A1DD8B3F108
:100ED000004F40EBC25008BF20F00100704790F077
:100EE000000F0CF0004C08BF49024CEA502040EAC9
:100EF00051207F3AC2BFD2F1FF0340EAC25070478F
:100F000040F400004FF00003013A5DDC12F1190FCC
:100F1000DCBF00F000407047C2F10002410021FA3E
:100F200002F1C2F1200200FA02FC5FEA310040F156
:100F3000000053EA4C0308BF20EADC70704792F0CF
:100F4000000F00F0004C02BF400010F4000F013A07
:100F5000F9D040EA0C0093F0000F01F0004C02BF02
:100F6000490011F4000F013BF9D041EA0C018FE771
:100F70000CEAD15392EA0C0F18BF93EA0C0F0AD077
:100F800030F0004C18BF31F0004CD8D180EA01009D
:100F900000F00040704790F0000F17BF90F0004F36
:100FA000084691F0000F91F0004F14D092EA0C0F18
:100FB00001D142020FD193EA0C0F03D14B0218BFAB
:100FC000084608D180EA010000F0004040F0FE40F1
:100FD00040F40000704740F0FE4040F4400070478D
:100FE0004FF0FF0C1CEAD0521EBF1CEAD15392EA0C
:100FF0000C0F93EA0C0F69D0A2EB030280EA010CFC
:1010000049024FEA402037D04FF0805343EA111194
:1010100043EA10130CF000408B4238BF5B0042F1F2
:101020007D024FF4000C8B4224BF5B1A40EA0C0097
:10103000B3EB510F24BFA3EB510340EA5C00B3EBC9
:10104000910F24BFA3EB910340EA9C00B3EBD10FB7
:1010500024BFA3EBD10340EADC001B0118BF5FEA09
:101060001C1CE0D1FD2A3FF650AF8B4240EBC25032
:1010700008BF20F0010070470CF0004C4CEA5020F3
:101080007F32C2BFD2F1FF0340EAC250704740F442
:1010900000004FF00003013A37E792F0000F00F034
:1010A000004C02BF400010F4000F013AF9D040EAB2
:1010B0000C0093F0000F01F0004C02BF490011F446
:1010C000000F013BF9D041EA0C0195E70CEAD1533E
:1010D00092EA0C0F08D142027FF47DAF93EA0C0F25
:1010E0007FF470AF084676E793EA0C0F04D14B0209
:1010F0003FF44CAF08466EE730F0004C18BF31F0BB
:10110000004CCAD130F000427FF45CAF31F00043B4
:101110007FF43CAF5FE700BF4FF0FF3C06E000BF4D
:101120004FF0010C02E000BF4FF0010C4DF804CD70
:101130004FEA40024FEA41037FEA226C18BF7FEA80
:10114000236C11D001B052EA530C18BF90EA010F82
:1011500058BFB2EB030088BFC81738BF6FEAE17011
:1011600018BF40F0010070477FEA226C02D15FEAAD
:10117000402C05D17FEA236CE4D15FEA412CE1D019
:101180005DF8040B704700BF844608466146FFE7E0
:101190000FB5FFF7C9FF002848BF10F1000F0FBDC2
:1011A0004DF808EDFFF7F4FF0CBF012000205DF8BB
:1011B00008FB00BF4DF808EDFFF7EAFF34BF012040
:1011C00000205DF808FB00BF4DF808EDFFF7E0FFD9
:1011D00094BF012000205DF808FB00BF4DF808ED2A
:1011E000FFF7D2FF94BF012000205DF808FB00BF8D
:1011F0004DF808EDFFF7C8FF34BF012000205DF86F
:1012000008FB00BF4FEA40024FEA41037FEA226C2D
:1012100002D15FEA402C08D17FEA236C02D15FEA59
:10122000412C02D14FF0000070474FF00100704791
:101230004FEA4002B2F1FE4F0FD34FF09E03B3EBE3
:1012400012620DD94FEA002343F0004310F0004F23
:1012500023FA02F018BF404270474FF00000704779
:1012600012F1610F01D1420205D110F0004008BF18
:101270006FF0004070474FF00000704742000ED200
:10128000B2F1FE4F0BD34FF09E03B3EB126209D4C1
:101290004FEA002343F0004323FA02F070474FF077
:1012A0000000704712F1610F01D1420202D14FF0EC
:1012B000FF3070474FF00000704700BF80B584B02A
:1012C00000AF786010F0C0FD0E4B00221A600D4A8E
:1012D0007B6893600B4B0122DA600A4B01225A6053
:1012E00007F10C031946074810F096FE0346002B41
:1012F00001D00CF01BFB10F0CDFD00BF1037BD4638
:1013000080BD00BFB4020020B0B582B000AF7860ED
:10131000396010F099FD3B6800221C4615462246B4
:101320002B467968022010F01FFD0346002B01D0E8
:101330000CF0FCFA10F0AEFD00BF0837BD46B0BDA2
:1013400080B582B000AF0346FB71FB79082B11D842
:10135000FB790A4A52F83300FB79084ADB00134450
:101360009988FB79054ADB0013449B791A4611F0F2
:10137000A6F800E000BF0837BD4680BD540000203D
:1013800080B582B000AF0346FB71FB79082B11D802
:10139000FB790A4A52F83300FB79084ADB00134410
:1013A0009988FB79054ADB001344DB791A4611F072
:1013B00086F800E000BF0837BD4680BD540000201D
:1013C00080B584B000AF0346FB710023FB73FB794B
:1013D000062B01D9002324E0FA79144913465B0057
:1013E00013449B000B441868FA79104913465B00BC
:1013F00013449B000B4404331B689BB2194611F045
:1014000047F803461846FA79084913465B00134427
:101410009B000B4408331B78984201D10123FB73D6
:10142000FB7B18461037BD4680BD00BF0000002082
:1014300080B584B000AFF8600B467A60FB72FB6841
:10144000FA7A1A70FB6800225A700FF0D7FB024636
:10145000FB689A60FB687A685A6000BF1037BD4627
:1014600080BD80B584B000AF786039600023FB7325
:101470007B685B78002B02D0012B11D02BE07B68BE
:101480001B781846FFF79CFF0346002B20D07B6893
:1014900001225A700FF0B2FB02467B689A6017E097
:1014A0007B681B781846FFF78BFF0346002B0BD099
:1014B0000FF0A4FB02467B689B68D31A3A689A42F5
:1014C00008D80123FB7305E07B6800225A7001E015
:1014D00000BF00E000BFFB7B18461037BD4680BD53
:1014E00080B584B000AF0346FB7100F08BFA034671
:1014F000FB60FB79012B08D1FA68137A43F00103F2
:1015000013720020FFF71CFF07E0FA68137A6FF3ED
:10151000000313720020FFF733FF00BF1037BD46F2
:1015200080BD80B584B000AF0346FB7100F06AFA5D
:101530000346FB60FB79012B08D1FA68137A43F06C
:10154000100313720420FFF7FBFE07E0FA68137A1A
:101550006FF3041313720420FFF712FF00BF10375C
:10156000BD4680BD80B584B000AF0346FB7100F07E
:1015700049FA0346FB60FB79012B08D1FA68137A1C
:1015800043F0020313720220FFF7DAFE07E0FA6865
:10159000137A6FF3410313720220FFF7F1FE00BFCD
:1015A0001037BD4680BD80B584B000AF0346FB71E7
:1015B00000F028FA0346FB60FB79012B08D1FA689A
:1015C000137A43F0200313720620FFF7B9FE07E0F9
:1015D000FA68137A6FF3451313720620FFF7D0FEF3
:1015E00000BF1037BD4680BD80B584B000AF034654
:1015F000FB7100F007FA0346FB60FB79012B08D171
:10160000FA68137A43F0080313720120FFF798FE7B
:1016100007E0FA68137A6FF3C30313720120FFF730
:10162000AFFE00BF1037BD4680BD80B584B000AFAF
:101630000346FB7100F0E6F90346FB60FB79012BE2
:1016400008D1FA68137A43F0800313720520FFF77C
:1016500077FE07E0FA68137A6FF3C7131372052059
:10166000FFF78EFE00BF1037BD4680BD80B584B049
:1016700000AF0346FB7100F0C5F90346FB60FB7940
:10168000012B08D1FA68137A43F004031372032084
:10169000FFF756FE07E0FA68137A6FF382031372BE
:1016A0000320FFF76DFE00BF1037BD4680BD80B53B
:1016B00084B000AF0346FB7100F0A4F90346FB6061
:1016C000FB79012B08D1FA68137A43F040031372B7
:1016D0000720FFF735FE07E0FA68137A6FF38613E9
:1016E00013720720FFF74CFE00BF1037BD4680BDC8
:1016F00080B584B000AF0346FB7100F083F9034668
:10170000FB60FB79012B08D1FA68537A43F001039F
:1017100053720820FFF714FE07E0FA68537A6FF35C
:10172000000353720820FFF72BFE00BF1037BD46A1
:1017300080BD000080B584B000AF0346FB71FB792B
:10174000002B0CD1FB791B020A4A13444FF4807220
:101750001946094814F0C9FB0346FB7300BFFB7B25
:10176000002B14BF01230023DBB218461037BD46FF
:1017700080BD00BFCC020020A430002080B586B020
:1017800000AF0346B9607A60FB7300237B61FB7B8B
:10179000002B0ED17B689AB26423B968074814F015
:1017A00021FB0346FB74FB7C002B01D17B687B6132
:1017B00000BF7B6918461837BD4680BDA4300020A5
:1017C00080B485B000AF0346FB710023FB60FB795A
:1017D000002B1FD1124BDB6B1B685B689BB2C3F500
:1017E00080739AB2FB79D2B291B20E4A22F81310EA
:1017F000FB790C4A32F8133003F58073FA790A4901
:1018000031F812209B1A5A42DBB2D2B258BF53426F
:10181000FB6000BFFB6818461437BD4680BC7047AC
:10182000A4300020C4020020C802002080B485B08B
:1018300000AF0346FB710023FB73FB79002B02D042
:10184000012B26D04EE0FB79294A32F81320FB7990
:10185000284931F813309A4241D0FB79FA7924496A
:1018600031F812201146244A1B0213440B441B7802
:10187000FB73FB791E4A32F8133001335A42DBB254
:10188000D2B258BF5342FA7999B2194B23F81210C9
:1018900025E0FB79164A32F81320FB79154931F817
:1018A00013309A421DD0FB79FA79114931F8122090
:1018B0001146114A1B0213440B441B78FB73FB793E
:1018C0000B4A32F8133001335A42DBB2D2B258BF5E
:1018D0005342FA7999B2064B23F8121001E000BF87
:1018E00000E000BFFB7B18461437BD4680BC704744
:1018F000C8020020C4020020CC0200200EB480B533
:10190000C7B000AF024607F58C73A3F211131A702B
:101910000023C7F8143107F59473C7F80C3107F1A9
:101920000C00D7F80C31D7F824214FF480711DF04A
:1019300057FDC7F81001D7F81031002B0DDDD7F88F
:10194000102107F10C0107F58C73A3F211131B781A
:101950001846FFF713FFC7F81401D7F814311846DB
:1019600007F58E77BD46BDE8804003B0704780B56F
:10197000C6B000AF07F58C73A3F58873196007F53F
:101980008C73A3F58A731A6007F58C73A3F209139D
:1019900002461A700023C7F8143107F58C73A3F5BB
:1019A0008A7307F58C72A2F5887207F110001B6824
:1019B00012684FF480711DF013FDC7F81001D7F8BD
:1019C0001031002B0DDDD7F8102107F1100107F5BC
:1019D0008C73A3F209131B781846FFF7CFFEC7F8E4
:1019E0001401D7F81431184607F58C77BD4680BD31
:1019F00080B400AF024B1846BD4680BC704700BFA4
:101A0000CC03002080B400AF024B1846BD4680BC1A
:101A1000704700BF7004002080B400AF024B18462E
:101A2000BD4680BC704700BFD005002080B500AF28
:101A30001E48FFF743FC1E4BB3F9103019461B48F4
:101A4000FFF762FC1A4BB3F9123019461948FFF739
:101A50005BFC174BB3F9143019461748FFF754FCD9
:101A6000134BB3F9163019461448FFF74DFC104BD1
:101A7000B3F9183019461248FFF746FC0C4BB3F97E
:101A80001A3019460F48FFF73FFC094BB3F91C30D9
:101A900019460D48FFF738FC054BB3F91E301946BF
:101AA0000A48FFF731FC00BF80BD00BF00F8030803
:101AB000D005002004F8030808F803080CF8030810
:101AC00010F8030814F8030818F803081CF80308B2
:101AD00080B500AF2A48FFF7F1FB2A4B64221A8237
:101AE000284B64225A82274B64229A82254B642217
:101AF000DA82244B14221A83224B1E225A83214B52
:101B000014229A831F4B1E22DA831E4BB3F9103026
:101B100019461B48FFF7F8FB1A4BB3F91230194668
:101B20001948FFF7F1FB174BB3F914301946174862
:101B3000FFF7EAFB134BB3F9163019461448FFF7C9
:101B4000E3FB104BB3F9183019461248FFF7DCFBE2
:101B50000C4BB3F91A3019460F48FFF7D5FB094B68
:101B6000B3F91C3019460D48FFF7CEFB054BB3F90E
:101B70001E3019460A48FFF7C7FB00BF80BD00BFF3
:101B800000F80308D005002004F8030808F803084B
:101B90000CF8030810F8030814F8030818F80308F1
:101BA0001CF8030880B582B000AF424B1B881BB203
:101BB000FB80FB884FF6FF72934202D1FFF788FF4C
:101BC00003E0B7F906203C4B1A823C4B1B881BB242
:101BD000FB80FB884FF6FF72934202D1FFF778FF3C
:101BE00003E0B7F90620344B5A82354B1B881BB2F1
:101BF000FB80FB884FF6FF72934202D1FFF768FF2C
:101C000003E0B7F906202C4B9A822E4B1B881BB29F
:101C1000FB80FB884FF6FF72934202D1FFF758FF1B
:101C200003E0B7F90620244BDA82274B1B881BB24E
:101C3000FB80FB884FF6FF72934202D1FFF748FF0B
:101C400003E0B7F906201C4B1A83204B1B881BB2FC
:101C5000FB80FB884FF6FF72934202D1FFF738FFFB
:101C600003E0B7F90620144B5A83194B1B881BB2AB
:101C7000FB80FB884FF6FF72934202D1FFF728FFEB
:101C800003E0B7F906200C4B9A83124B1B881BB25A
:101C9000FB80FB884FF6FF72934202D1FFF718FFDB
:101CA00003E0B7F90620044BDA8300BF0837BD46CE
:101CB00080BD00BF00F80308D005002004F8030829
:101CC00008F803080CF8030810F8030814F80308D0
:101CD00018F803081CF8030880B500AF2548FFF783
:101CE000EDFA254B93F8203019462248FFF70CFBFC
:101CF000214B93F8213019462048FFF705FB1E4B76
:101D000093F8223019461E48FFF7FEFA1A4B93F853
:101D1000233019461B48FFF7F7FA174B93F8243086
:101D200019461948FFF7F0FA134B93F92530194675
:101D30001648FFF7E9FA104B93F926301946144874
:101D4000FFF7E2FA0C4B93F9273019461148FFF7D9
:101D5000DBFA094B93F9283019460F48FFF7D4FAFC
:101D6000054B93F8293019460C48FFF7CDFA00BF10
:101D700080BD00BF00F00308D005002004F0030878
:101D800008F003080CF0030810F0030814F003082F
:101D900018F003081CF0030820F0030824F00308DF
:101DA00080B500AF3948FFF789FA394B002283F834
:101DB0002020374B012283F82120354B012283F864
:101DC0002220334B012283F82320314B0A2283F84F
:101DD00024202F4B002283F825202D4B002283F84E
:101DE00026202B4B002283F82720294B002283F842
:101DF0002820274B002283F82920254B93F82030F8
:101E000019462248FFF780FA214B93F821301946F2
:101E10002048FFF779FA1E4B93F8223019461E48E6
:101E2000FFF772FA1A4B93F8233019461B48FFF755
:101E30006BFA174B93F8243019461948FFF764FAE8
:101E4000134B93F9253019461648FFF75DFA104BEE
:101E500093F9263019461448FFF756FA0C4B93F9BC
:101E6000273019461148FFF74FFA094B93F92830EC
:101E700019460F48FFF748FA054B93F829301946E1
:101E80000C48FFF741FA00BF80BD00BF00F0030817
:101E9000D005002004F0030808F003080CF0030844
:101EA00010F0030814F0030818F003081CF00308EE
:101EB00020F0030824F0030880B582B000AF414B46
:101EC0001B78DBB2FB80FB88FF2B02D1FFF768FF9A
:101ED00004E0FB88DAB23C4B83F820203B4B1B78B4
:101EE000DBB2FB80FB88FF2B02D1FFF759FF04E038
:101EF000FB88DAB2344B83F82120354B1B78DBB2F8
:101F0000FB80FB88FF2B02D1FFF74AFF04E0FB8830
:101F1000DAB22D4B83F822202E4B1B78DBB2FB80EC
:101F2000FB88FF2B02D1FFF73BFF04E0FB88DAB20E
:101F3000254B83F82320284B1B78DBB2FB80FB88E2
:101F4000FF2B02D1FFF72CFF04E0FB88DAB21E4B17
:101F500083F82420214B1B785BB2FB80FB885AB2AC
:101F6000194B83F825201E4B1B785BB2FB80FB8846
:101F70005AB2154B83F826201A4B1B785BB2FB80B4
:101F8000FB885AB2104B83F82720174B1B785BB2A3
:101F9000FB80FB885AB20C4B83F82820134B1B782C
:101FA000DBB2FB80FB88FF2B02D1FFF7F9FE04E0D8
:101FB000FB88DAB2044B83F8292000BF0837BD46FE
:101FC00080BD00BF00F00308D005002004F0030826
:101FD00008F003080CF0030810F0030814F00308DD
:101FE00018F003081CF0030820F0030824F003088D
:101FF00080B500AF3A48FFF761F93A4BB3F92A30A0
:1020000019463748FFF780F9364BB3F92C3019469B
:102010003548FFF779F9334BB3F92E301946334879
:10202000FFF772F92F4BB3F9303019463048FFF7FC
:102030006BF92C4BB3F9323019462E48FFF764F98F
:10204000284BB3F9343019462B48FFF75DF9254B7F
:10205000B3F9363019462948FFF756F9214BB3F941
:10206000383019462648FFF74FF91E4BB3F93A307E
:1020700019462448FFF748F91A4BB3F93C30194682
:102080002148FFF741F9174BB3F93E3019461F4875
:10209000FFF73AF9134BB3F9403019461C48FFF7E4
:1020A00033F9104BB3F9423019461A48FFF72CF9AF
:1020B0000C4BB3F9443019461748FFF725F9094B83
:1020C000B3F9463019461548FFF71EF9054BB3F929
:1020D000483019461248FFF717F900BF80BD00BF0E
:1020E00000E80308D005002004E8030808E8030816
:1020F0000CE8030810E8030814E8030818E80308CC
:102100001CE8030820E8030824E8030828E803087B
:102110002CE8030830E8030834E8030838E803082B
:102120003CE8030880B500AF5448FFF7C7F8544BAC
:1021300000225A85524B00229A85514B0022DA85A3
:102140004F4B00221A864E4B00225A864C4B0022DF
:102150009A864B4B0022DA86494B00221A87484B5D
:1021600096225A87464BB4229A87454B9622DA87A5
:10217000434BB422A3F84020414B9622A3F84220BF
:102180003F4BB422A3F844203D4B9622A3F84620AF
:102190003B4BB422A3F84820394BB3F92A301946F7
:1021A0003648FFF7B1F8364BB3F92C3019463548AD
:1021B000FFF7AAF8324BB3F92E3019463248FFF731
:1021C000A3F82F4BB3F9303019463048FFF79CF88D
:1021D0002B4BB3F9323019462D48FFF795F8284BB1
:1021E000B3F9343019462B48FFF78EF8244BB3F976
:1021F000363019462848FFF787F8214BB3F93830B5
:1022000019462648FFF780F81D4BB3F93A301946B6
:102210002348FFF779F81A4BB3F93C3019462148A7
:10222000FFF772F8164BB3F93E3019461E48FFF718
:102230006BF8134BB3F9403019461C48FFF764F8AC
:102240000F4BB3F9423019461948FFF75DF80C4BB4
:10225000B3F9443019461748FFF756F8084BB3F95D
:10226000463019461448FFF74FF8054BB3F948308C
:1022700019461248FFF748F800BF80BD00E8030880
:10228000D005002004E8030808E803080CE8030868
:1022900010E8030814E8030818E803081CE803081A
:1022A00020E8030824E8030828E803082CE80308CA
:1022B00030E8030834E8030838E803083CE803087A
:1022C00080B582B000AF684B1B88FB80FB884FF65F
:1022D000FF72934202D1FFF725FF03E0B7F9062012
:1022E000624B5A85624B1B881BB2FB80B7F90620F4
:1022F0005E4B9A855F4B1B881BB2FB80B7F90620AB
:102300005A4BDA855C4B1B881BB2FB80B7F9062061
:10231000564B1A86594B1B881BB2FB80B7F9062017
:10232000524B5A86564B1B881BB2FB80B7F90620CE
:102330004E4B9A86534B1B881BB2FB80B7F9062085
:102340004A4BDA86504B1B881BB2FB80B7F906203C
:10235000464B1A874D4B1B881BB2FB80FB884FF600
:10236000FF72934202D1FFF7DDFE03E0B7F90620CA
:102370003E4B5A87464B1B881BB2FB80FB884FF6AF
:10238000FF72934202D1FFF7CDFE03E0B7F90620BA
:10239000364B9A873F4B1B881BB2FB80FB884FF65E
:1023A000FF72934202D1FFF7BDFE03E0B7F90620AA
:1023B0002E4BDA87384B1B881BB2FB80FB884FF60D
:1023C000FF72934202D1FFF7ADFE04E0B7F9062099
:1023D000264BA3F84020314B1B881BB2FB80FB88A7
:1023E0004FF6FF72934202D1FFF79CFE04E0B7F96B
:1023F00006201E4BA3F84220294B1B881BB2FB80F2
:10240000FB884FF6FF72934202D1FFF78BFE04E088
:10241000B7F90620154BA3F84420224B1B881BB2AA
:10242000FB80FB884FF6FF72934202D1FFF77AFEE2
:1024300004E0B7F906200D4BA3F846201A4B1B8881
:102440001BB2FB80FB884FF6FF72934202D1FFF76D
:1024500069FE04E0B7F90620044BA3F8482000BF4A
:102460000837BD4680BD00BF00E80308D005002046
:1024700004E8030808E803080CE8030810E8030868
:1024800014E8030818E803081CE8030820E8030818
:1024900024E8030828E803082CE8030830E80308C8
:1024A00034E8030838E803083CE8030880B500AFC7
:1024B0003A48FEF703FF3A4BB3F84A30194637481B
:1024C000FEF722FF364BB3F94C3019463548FEF77C
:1024D0001BFF334BB3F84E3019463348FEF714FF59
:1024E0002F4BB3F8503019463048FEF70DFF2C4BF8
:1024F000B3F8523019462E48FEF706FF284BB3F8C2
:10250000543019462B48FEF7FFFE254BB3F85630E2
:1025100019462948FEF7F8FE214BB3F85830194602
:102520002648FEF7F1FE1E4BB3F85A3019462448F0
:10253000FEF7EAFE1A4BB3F95C3019462148FEF764
:10254000E3FE174BB3F85E3019461F48FEF7DCFE7A
:10255000134BB3F8603019461C48FEF7D5FE104BFC
:10256000B3F8623019461A48FEF7CEFE0C4BB3F8AA
:10257000643019461748FEF7C7FE094BB3F86630BA
:1025800019461548FEF7C0FE054BB3F868301946EA
:102590001248FEF7B9FE00BF80BD00BF00E003088F
:1025A000D005002004E0030808E003080CE003085D
:1025B00010E0030814E0030818E003081CE0030817
:1025C00020E0030824E0030828E003082CE00308C7
:1025D00030E0030834E0030838E003083CE0030877
:1025E00080B500AF5B48FEF769FE5B4B4FF4FA72B3
:1025F000A3F84A20584B0022A3F84C20564B002247
:10260000A3F85020544B0022A3F84E20524B002236
:10261000A3F85220504B0022A3F854204E4B002226
:10262000A3F856204C4B0022A3F858204A4B4FF4F5
:10263000FA72A3F85A20484B0022A3F85C20464BBC
:102640000022A3F86020444B0022A3F85E20424BF6
:102650000022A3F86220404B0022A3F864203E4BE6
:102660000022A3F866203C4B0022A3F868203A4BD6
:10267000B3F84A3019463748FEF746FE364BB3F9F1
:102680004C3019463548FEF73FFE334BB3F84E3019
:1026900019463348FEF738FE2F4BB3F85030194631
:1026A0003048FEF731FE2C4BB3F8523019462E4815
:1026B000FEF72AFE284BB3F8543019462B48FEF794
:1026C00023FE254BB3F8563019462948FEF71CFE69
:1026D000214BB3F8583019462648FEF715FE1E4B1D
:1026E000B3F85A3019462448FEF70EFE1A4BB3F9D8
:1026F0005C3019462148FEF707FE174BB3F85E30F1
:1027000019461F48FEF700FE134BB3F86030194618
:102710001C48FEF7F9FD104BB3F8623019461A4811
:10272000FEF7F2FD0C4BB3F8643019461748FEF77C
:10273000EBFD094BB3F8663019461548FEF7E4FD8A
:10274000054BB3F8683019461248FEF7DDFD00BFAF
:1027500080BD00BF00E00308D005002004E00308AE
:1027600008E003080CE0030810E0030814E0030885
:1027700018E003081CE0030820E0030824E0030835
:1027800028E003082CE0030830E0030834E00308E5
:1027900038E003083CE0030880B582B000AF734B1B
:1027A0001B88FB80FB884FF6FF72934202D1FFF734
:1027B00017FF03E06E4AFB88A2F84A306D4B1B8876
:1027C000FB80B7F906206A4BA3F84C206A4B1B88A4
:1027D000FB80FB884FF6FF72934202D1FFF700FFA8
:1027E00003E0634AFB88A2F84E30644B1B88FB80F1
:1027F000FB884FF6FF72934202D1FFF7F1FE03E030
:102800005B4AFB88A2F850305D4B1B88FB80FB883D
:102810004FF6FF72934202D1FFF7E2FE03E0544A03
:10282000FB88A2F85230574B1B88FB80FB884FF681
:10283000FF72934202D1FFF7D3FE03E04C4AFB88BC
:10284000A2F85430504B1B88FB80FB884FF6FF7278
:10285000934202D1FFF7C4FE03E0454AFB88A2F889
:1028600056304A4B1B88FB80FB884FF6FF72934221
:1028700002D1FFF7B5FE03E03D4AFB88A2F85830CD
:10288000434B1B88FB80FB884FF6FF72934202D1BB
:10289000FFF7A6FE03E0364AFB88A2F85A303D4B0C
:1028A0001B88FB80B7F90620314BA3F85C203A4B1C
:1028B0001B88FB80FB884FF6FF72934202D1FFF723
:1028C0008FFE03E02A4AFB88A2F85E30334B1B8858
:1028D000FB80FB884FF6FF72934202D1FFF780FE28
:1028E00003E0234AFB88A2F860302D4B1B88FB8055
:1028F000FB884FF6FF72934202D1FFF771FE03E0AF
:102900001B4AFB88A2F86230264B1B88FB80FB88A1
:102910004FF6FF72934202D1FFF762FE03E0144AC2
:10292000FB88A2F86430204B1B88FB80FB884FF6A5
:10293000FF72934202D1FFF753FE03E00C4AFB887B
:10294000A2F86630194B1B88FB80FB884FF6FF729C
:10295000934202D1FFF744FE03E0054AFB88A2F848
:10296000683000BF0837BD4680BD00BF00E00308E7
:10297000D005002004E0030808E003080CE0030889
:1029800010E0030814E0030818E003081CE0030843
:1029900020E0030824E0030828E003082CE00308F3
:1029A00030E0030834E0030838E003083CE00308A3
:1029B00080B500AFFFF7F6F8FFF77EFAFFF780FC6F
:1029C000FFF7EAFE00BF80BD80B582B000AF78603F
:1029D00000231846FEF7AEFE00F084F805490648CD
:1029E00000F0A6F8012017F0F1FF00F04BF900BF4E
:1029F000F8E700BF212A00089416020880B500AF4E
:102A0000044A0021044817F037FF0346034A1360C5
:102A100000BF80BD241C0208C9290008440700200B
:102A200080B586B000AF03463960FB710023FB75AB
:102A3000FB79012B0DD13B681B682349184600F038
:102A4000EFF80346002B04D0204800F0D5F801230E
:102A5000FB75FB79022B24D13B681B681C49184687
:102A600000F0DEF80346002B1BD03B6804331B68E4
:102A70000021184600F0E7F80346FB7300233B6192
:102A800009E03B690133FA7B1946124800F0B4F8BB
:102A90003B6901333B61FB7B3A699A42F1DB0123DD
:102AA000FB75FB7D83F00103DBB2002B08D00A48E5
:102AB00000F0A2F8094800F09FF8094800F09CF8DF
:102AC00000BF1837BD4680BD9C160208A416020838
:102AD000B8160208C0160208D0160208DC16020852
:102AE000F016020880B582B000AF00237B600CE0D6
:102AF0000C497A6813465B0013449B000B4408336F
:102B000000221A607B6801337B607B68072BEFDD56
:102B10000549064800F00CF8012318460837BD4661
:102B200080BD00BFE4060020992B000800170208B2
:102B300080B582B000AF78603960154B1B78072BE9
:102B400001D9002320E0124B1B781A4613465B0084
:102B500013449B000F4A13440822796818461CF05E
:102B600055FC0B4B1B7819460A4A0B465B000B447D
:102B70009B00134408333A681A60054B1B780133F5
:102B8000DAB2034B1A70012318460837BD4680BDE0
:102B9000E0060020E406002080B584B000AF0346C4
:102BA0003960FB71104800F027F80023FB600DE04E
:102BB000FA6813465B0013449B000C4A1344194601
:102BC0000B4800F019F8FB680133FB60094B1B78D8
:102BD0001A46FB689342EBDB034800F00DF800BF98
:102BE0001037BD4680BD00BF08170208E40600206C
:102BF00024170208E00600200FB480B582B000AFB1
:102C000007F114037B6000237A6839691846FEF7E0
:102C1000AEFE00BF0837BD46BDE8804004B0704737
:102C200080B582B000AF7860396039687868FDF7A8
:102C3000FFFA0346002B01D1012300E000231846D0
:102C40000837BD4680BD80B584B000AF786039607C
:102C50003A68002178681BF055FC0346FB60FB686E
:102C600018461037BD4680BD80B500AF002318461A
:102C7000FEF7A6FD0346002B01D1012300E000234F
:102C8000184680BD80B586B000AF0023FB750023D9
:102C90001846FEF795FD0346002B00F08B800023BD
:102CA0001846FEF7C3FD0346FB72FB7A0D2B6AD173
:102CB000434B1B881A46434B00219954404B00223A
:102CC0001A80002340491846FEF718FE3D4B7B60F2
:102CD0003E4B00221A800CE03C4B1B8819463C4AB4
:102CE000FB6842F82130394B1B8801339AB2374BCD
:102CF0001A807B683A1D374918461CF0C2FBF86001
:102D0000FB68002BE8D100233B6130E0304B1868B2
:102D10003A6913465B0013449B002F4A134419463B
:102D2000FDF786FA0346002B1ED12B493A6913465C
:102D30005B0013449B000B4408331B68002B13D02B
:102D400025493A6913465B0013449B000B44083342
:102D50001B681E4A1288D2B2013AD2B21F491046ED
:102D600098470123FB7508E03B6901333B611C4B2D
:102D70001B781A463B699342C8DB00231949184661
:102D8000FEF7BCFD16E00E4B1B887E2B12D80C4BB9
:102D90001B881A46F97A0B4B9954094B1B8801334F
:102DA0009AB2074B1A80002007F10B030122194643
:102DB000FEF7E4FCFB7D18461837BD4680BD00BF1A
:102DC000BC0600203C06002028170208BE06002092
:102DD000C00600202C170208E4060020C4060020CC
:102DE000E00600203017020880B586B002AF786098
:102DF0007B6893F84830012B57D17B6834331846F1
:102E00000CF0C8FB0346FB737B6893F83820A64B95
:102E10001A707B6893F83920A34B5A707B6893F83B
:102E20003A20A14B9A707B6893F834209F4BDA705C
:102E30007B6893F835209D4B5A707B6893F8362059
:102E40009A4B9A707B6893F83730013BDAB2974B14
:102E50001A7000229449964811F0FCF90022934917
:102E6000934811F067FBFB7B83F00103DBB2002B7F
:102E700012D07B6893F83C300133DAB27B6883F878
:102E80003C207B6893F83C30092B40F285817B68BD
:102E9000FF2283F848207FE17B68002283F83C20F2
:102EA0007B68002283F848207DE17B6893F84830F6
:102EB000022B40F0838007F1080318460CF0EEFA6D
:102EC0000346FB73FB7B83F00103DBB2002B10D0C6
:102ED0007B6893F83C300133DAB27B6883F83C209E
:102EE0007B6893F83C30092B48D9724B63221A70E7
:102EF00044E03B7A172B3AD97B68343307F1080258
:102F000092E8030018600433198002330A0C1A7027
:102F10007B6893F83820644B1A707B6893F83920EB
:102F2000614B5A707B6893F83A205F4B9A707B68CC
:102F300093F834205D4BDA707B6893F835205B4B57
:102F40005A707B6893F83620584B9A707B6893F8D8
:102F50003730013BDAB2554B1A70002252495448BF
:102F600011F078F900225149514811F0E3FA7B68D9
:102F7000002283F83C207B6800221A64FB7B83F0EC
:102F80000103DBB2002B11D07B6893F83C30013396
:102F9000DAB27B6883F83C207B6893F83C30092BDD
:102FA0000CD97B68FF2283F8482007E07B68002269
:102FB00083F83C207B68002283F848203D4B1B7837
:102FC000032B11DC002BC0F2EE80032B00F2EB8010
:102FD00001A252F823F000BFF12F00080D300008C5
:102FE0006B30000855310008632B00F0CB80DAE02D
:102FF00031480CF045FA7B68002283F83C202D4BC9
:103000001B780133DAB22B4B1A70CCE00CF0AEFB1C
:103010001E23009300230022002103200CF006FB56
:103020000346FB73FB7B83F00103DBB2002B11D063
:103030007B6893F83C300133DAB27B6883F83C203C
:103040007B6893F83C30092B40F2A880194B63222F
:103050001A70A3E0174B1B780133DAB2154B1A70C4
:103060007B68002283F83C2098E007F108031846AB
:103070000CF014FA0346FB73FB7B83F00103DBB215
:10308000002B1BD07B6893F83C300133DAB27B68AD
:1030900083F83C207B6893F83C30092B40F2808019
:1030A000044B63221A707BE04C070020500700207D
:1030B0004C2F00205C070020A02E00203B7A172B0D
:1030C0003AD97B68343307F1080292E803001860AC
:1030D0000433198002330A0C1A707B6893F8382085
:1030E000324B1A707B6893F83920304B5A707B68EA
:1030F00093F83A202D4B9A707B6893F834202C4B30
:10310000DA707B6893F83520294B5A707B6893F806
:103110003620274B9A707B6893F83730013BDAB240
:10312000234B1A7000222149224811F093F8002203
:103130001F49204811F0FEF91F4B1B780133DAB20A
:103140001D4B1A707B68002283F83C207B680022AC
:103150001A6425E000221549164811F013F90022DF
:103160001349144811F09CFA7B681B6C5A1C7B684D
:103170001A647B681B6C114A934213D90E4B0222CE
:103180001A700FE0002209490A4811F0FBF87B6829
:10319000FF2283F8482006E000BF04E000BF02E001
:1031A00000BF00E000BF1037BD4680BD4C070020C7
:1031B000500700204C2F00205C0700207F9706005E
:1031C00080B400AF0C4B00221A700B4B00225A70D7
:1031D000094B00229A70094B1822DA70074B012222
:1031E0005A70064B01229A70044B01221A7000BFDC
:1031F000BD4680BC704700BF4C0700205007002030
:1032000080B582B000AF78607B68B3F85630002B91
:1032100054D0304B1B78022B34D0022B55DC002BC2
:1032200002D0012B12D050E02A4B01221A7000204C
:10323000FEF71CFA7B68B3F856301A4648F6A043EE
:1032400002FB03F31A46244B1A603EE0224B1B6834
:10325000002B05D0204B1B68013B1F4A136034E054
:103260001C4B02221A707B68B3F856301A4648F697
:10327000A04302FB03F31A46174B1A600120FEF726
:10328000F5F922E0144B1B68002B05D0124B1B688C
:10329000013B114A136018E00E4B01221A707B6843
:1032A000B3F856301A4648F6A04302FB03F31A4619
:1032B000094B1A600020FEF7D9F906E0054B002201
:1032C0001A700020FEF7D2F9FFE700BF0837BD46AD
:1032D00080BD00BF5D0700206007002080B582B080
:1032E00000AF78607B68B3F86630002B54D0304B69
:1032F0001B78022B34D0022B55DC002B02D0012B83
:1033000012D050E02A4B01221A700020FEF7CFF9AC
:103310007B68B3F866301A4648F6A04302FB03F315
:103320001A46244B1A603EE0224B1B68002B05D046
:10333000204B1B68013B1F4A136034E01C4B0222E8
:103340001A707B68B3F866301A4648F6A04302FB51
:1033500003F31A46174B1A600120FEF7A8F922E082
:10336000144B1B68002B05D0124B1B68013B114A04
:10337000136018E00E4B01221A707B68B3F86630B8
:103380001A4648F6A04302FB03F31A46094B1A609B
:103390000020FEF78CF906E0054B00221A70002091
:1033A000FEF785F9FFE700BF0837BD4680BD00BFC7
:1033B000640700206807002090B583B000AF7860F4
:1033C00039603B689B7903F00403DBB2002B04D027
:1033D0007B6893F82330002B68D03B681B6A354923
:1033E0001846FDF7FBFE0346002B14D07B6893F8CC
:1033F0002330002B04D13A6893796FF382039371E1
:103400007B6893F824301A46920013445B009AB20A
:10341000294B1A804BE03B681B6A28491846FDF788
:10342000D3FE0346002B10D0234B1B88002B06D065
:10343000214B1B88013B9AB21F4B1A8037E03A6838
:10344000937943F00403937131E03B681C6A7B6815
:10345000B3F910301846FDF7BBFC03461946204669
:10346000FDF7C6FE0346002B10D0134B1B88002B24
:1034700006D0114B1B88013B9AB20F4B1A8016E005
:103480003A68937943F00403937110E03A689379B2
:103490006FF3820393717B6893F824301A4692008D
:1034A00013445B009AB2044B1A8000E000BF0C3753
:1034B000BD4690BD000096436C0700200000C6C2C8
:1034C00090B583B000AF786039603B689B7903F0BA
:1034D0000803DBB2002B04D07B6893F82330002B69
:1034E00068D03B685B6A35491846FDF777FE0346AE
:1034F000002B14D07B6893F82330002B04D13A685A
:1035000093796FF3C30393717B6893F824301A4661
:10351000920013445B009AB2294B1A804BE03B683F
:103520005B6A28491846FDF74FFE0346002B10D072
:10353000234B1B88002B06D0214B1B88013B9AB2E2
:103540001F4B1A8037E03A68937943F00803937170
:1035500031E03B685C6A7B68B3F912301846FDF7CE
:1035600037FC034619462046FDF742FE0346002B72
:1035700010D0134B1B88002B06D0114B1B88013B2E
:103580009AB20F4B1A8016E03A68937943F0080319
:10359000937110E03A6893796FF3C30393717B687A
:1035A00093F824301A46920013445B009AB2044BFD
:1035B0001A8000E000BF0C37BD4690BD0000964366
:1035C0006E0700200000C6C290B583B000AF7860DF
:1035D00039603B68DB7903F00403DBB2002B04D0D5
:1035E0007B6893F82330002B68D03B689B6A354991
:1035F0001846FDF7F3FD0346002B14D07B6893F8C3
:103600002330002B04D13A68D3796FF38203D3714E
:103610007B6893F824301A46920013445B009AB2F8
:10362000294B1A804BE03B689B6A28491846FDF7F6
:10363000CBFD0346002B10D0234B1B88002B06D05C
:10364000214B1B88013B9AB21F4B1A8037E03A6826
:10365000D37943F00403D37131E03B689C6A7B6803
:10366000B3F914301846FDF7B3FB0346194620465C
:10367000FDF7BEFD0346002B10D0134B1B88002B1B
:1036800006D0114B1B88013B9AB20F4B1A8016E0F3
:103690003A68D37943F00403D37110E03A68D379E0
:1036A0006FF38203D3717B6893F824301A4692003B
:1036B00013445B009AB2044B1A8000E000BF0C3741
:1036C000BD4690BD00009643700700200000C6C2B2
:1036D00090B583B000AF786039603B68DB7903F068
:1036E0000803DBB2002B04D07B6893F82330002B57
:1036F00068D03B68DB6A35491846FDF76FFD034625
:10370000002B14D07B6893F82330002B04D13A6847
:10371000D3796FF3C303D3717B6893F824301A46CF
:10372000920013445B009AB2294B1A804BE03B682D
:10373000DB6A28491846FDF747FD0346002B10D0E9
:10374000234B1B88002B06D0214B1B88013B9AB2D0
:103750001F4B1A8037E03A68D37943F00803D371DE
:1037600031E03B68DC6A7B68B3F916301846FDF738
:103770002FFB034619462046FDF73AFD0346002B72
:1037800010D0134B1B88002B06D0114B1B88013B1C
:103790009AB20F4B1A8016E03A68D37943F00803C7
:1037A000D37110E03A68D3796FF3C303D3717B68A8
:1037B00093F824301A46920013445B009AB2044BEB
:1037C0001A8000E000BF0C37BD4690BD0000964354
:1037D000720700200000C6C280B582B000AF7860DA
:1037E00039603B681B6A26491846FDF7EDFC034625
:1037F000002B08D13B681B6A22491846FDF7EEFCF6
:103800000346002B03D00020FDF7ACFE33E07B68BD
:10381000B3F918207B68B3F91A309A4203DB002011
:10382000FDF7A0FE27E07B68B3F918301846FDF7D6
:10383000CFFA02463B681B6A19461046FDF7D8FCD2
:103840000346002B03D00120FDF78CFE13E07B68BC
:10385000B3F91A301846FDF7BBFA02463B681B6AFB
:1038600019461046FDF7A6FC0346002B00D102E0E6
:103870000020FDF777FE00BF0837BD4680BD00BFC2
:103880000000C6C20000964380B582B000AF7860E9
:1038900039603B689B6A26491846FDF795FC03464C
:1038A000002B08D13B689B6A22491846FDF796FC1D
:1038B0000346002B03D00020FDF775FE33E07B6844
:1038C000B3F91C207B68B3F91E309A4203DB002059
:1038D000FDF769FE27E07B68B3F91C301846FDF759
:1038E00077FA02463B689B6A19461046FDF780FC52
:1038F0000346002B03D00120FDF755FE13E07B6843
:10390000B3F91E301846FDF763FA02463B689B6A1E
:1039100019461046FDF74EFC0346002B00D102E08D
:103920000020FDF740FE00BF0837BD4680BD00BF48
:103930000000C6C20000964380B582B000AF786038
:1039400039603B68B3F85031002B00F0C8807B68C9
:10395000B3F84A203B68B3F850319A42C0F0BF80B8
:103960007B68B3F852203B68B3F850319A4218D9BB
:103970006D4B1B88002B06D06B4B1B88013B9AB20A
:10398000694B1A80CCE03A68937943F01003937145
:103990003A6893796FF3451393710120FDF724FE84
:1039A000BEE07B68B3F85430002B20D07B68B3F8BE
:1039B00054203B68B3F850319A4218D25B4B1B88B5
:1039C000002B06D0594B1B88013B9AB2574B1A80EB
:1039D000A6E03A6893796FF3041393713A68937988
:1039E00043F0200393710120FDF7FEFD76E03B6874
:1039F0009B7903F01003DBB2002B29D07B68B3F86E
:103A00004E203B68B3F850319A4221D27B68B3F81C
:103A100058301A46920013445B009AB2434B1A8006
:103A20007B68B3F858301A46920013445B009AB290
:103A30003D4B1A803A6893796FF3041393713A6897
:103A400093796FF3451393710020FDF7CDFD45E0A9
:103A50003B689B7903F02003DBB2002B29D07B6805
:103A6000B3F850203B68B3F850319A4221D97B68B3
:103A7000B3F858301A46920013445B009AB22B4BAD
:103A80001A807B68B3F858301A46920013445B00E2
:103A90009AB2254B1A803A6893796FF304139371A5
:103AA0003A6893796FF3451393710020FDF79CFDFD
:103AB00014E07B68B3F858301A46920013445B0058
:103AC0009AB21A4B1A807B68B3F858301A469200A3
:103AD00013445B009AB2144B1A8021E020E07B680B
:103AE000B3F858301A46920013445B009AB20F4B59
:103AF0001A807B68B3F858301A46920013445B0072
:103B00009AB2094B1A803A6893796FF30413937150
:103B10003A6893796FF3451393710020FDF764FDC4
:103B20000837BD4680BD00BF56070020540700205F
:103B300080B582B000AF786039603B68B3F852312D
:103B4000002B00F0C8807B68B3F85A203B68B3F8BC
:103B500052319A42C0F0BF807B68B3F862203B6864
:103B6000B3F852319A4218D96D4B1B88002B06D0FE
:103B70006B4B1B88013B9AB2694B1A80CCE03A68C8
:103B8000D37943F01003D3713A68D3796FF34513B7
:103B9000D3710120FDF749FDBEE07B68B3F86430C6
:103BA000002B20D07B68B3F864203B68B3F8523117
:103BB0009A4218D25B4B1B88002B06D0594B1B88AE
:103BC000013B9AB2574B1A80A6E03A68D3796FF35B
:103BD0000413D3713A68D37943F02003D3710120E1
:103BE000FDF723FD76E03B68DB7903F01003DBB2E1
:103BF000002B29D07B68B3F85E203B68B3F85231C4
:103C00009A4221D27B68B3F868301A469200134476
:103C10005B009AB2434B1A807B68B3F868301A464F
:103C2000920013445B009AB23D4B1A803A68D379F4
:103C30006FF30413D3713A68D3796FF34513D371DB
:103C40000020FDF7F2FC45E03B68DB7903F0200340
:103C5000DBB2002B29D07B68B3F860203B68B3F857
:103C600052319A4221D97B68B3F868301A469200E3
:103C700013445B009AB22B4B1A807B68B3F8683010
:103C80001A46920013445B009AB2254B1A803A6898
:103C9000D3796FF30413D3713A68D3796FF3451373
:103CA000D3710020FDF7C1FC14E07B68B3F86830E5
:103CB0001A46920013445B009AB21A4B1A807B6832
:103CC000B3F868301A46920013445B009AB2144B62
:103CD0001A8021E020E07B68B3F868301A46920031
:103CE00013445B009AB20F4B1A807B68B3F86830BC
:103CF0001A46920013445B009AB2094B1A803A6844
:103D0000D3796FF30413D3713A68D3796FF3451302
:103D1000D3710020FDF789FC0837BD4680BD00BF88
:103D20005A0700205807002080B483B000AF7860A5
:103D300039603B68B3F85031002B07D07B68B3F88B
:103D40004A203B68B3F850319A4205D23A689379D9
:103D50006FF30003937128E07B68B3F84E207B6813
:103D6000B3F850309A4205D33A6893796FF3000361
:103D700093711AE07B68B3F84E203B68B3F850317A
:103D80009A4205D93A68937943F0010393710CE0A4
:103D90007B68B3F850203B68B3F850319A4204D2A4
:103DA0003A6893796FF30003937100BF0C37BD46F7
:103DB00080BC704780B483B000AF786039603B68E6
:103DC000B3F85231002B07D07B68B3F85A203B6818
:103DD000B3F852319A4205D23A68D3796FF30003AF
:103DE000D37128E07B68B3F85E207B68B3F860305D
:103DF0009A4205D33A68D3796FF30003D3711AE07E
:103E00007B68B3F85E203B68B3F852319A4205D91B
:103E10003A68D37943F00103D3710CE07B68B3F8BF
:103E200060203B68B3F852319A4204D23A68D379A1
:103E30006FF30003D37100BF0C37BD4680BC7047E1
:103E400080B483B000AF786039603B689B7903F041
:103E50000203DBB2002B04D07B6893F82330002BE5
:103E600027D03B685B7903F00203DBB2002B10D054
:103E7000124B1B88002B06D0104B1B88013B9AB2BB
:103E80000E4B1A8016E03A68937943F0020393715F
:103E900010E03A6893796FF3410393717B6893F86C
:103EA00024301A46920013445B009AB2034B1A80E6
:103EB00000E000BF0C37BD4680BC7047740700208F
:103EC00080B483B000AF786039603B68DB7903F081
:103ED0000203DBB2002B04D07B6893F82330002B65
:103EE00027D03B685B7903F00403DBB2002B10D0D2
:103EF000124B1B88002B06D0104B1B88013B9AB23B
:103F00000E4B1A8016E03A68D37943F00203D3715E
:103F100010E03A68D3796FF34103D3717B6893F86B
:103F200024301A46920013445B009AB2034B1A8065
:103F300000E000BF0C37BD4680BC7047760700200C
:103F400080B582B000AF78607B689B7903F0020394
:103F5000DBB2002B14D17B689B7903F00103DBB249
:103F6000002B0DD17B689B7903F00403DBB2002B9F
:103F700006D17B689B7903F00803DBB2002B03D0EA
:103F80000120FDF7ADFA02E00020FDF7A9FA7B68F9
:103F9000DB7903F00203DBB2002B14D17B68DB7901
:103FA00003F00103DBB2002B0DD17B68DB7903F05A
:103FB0000403DBB2002B06D17B68DB7903F0080336
:103FC000DBB2002B03D00120FDF7ABFA03E00020A9
:103FD000FDF7A7FA00BF00BF0837BD4680BD00004F
:103FE00080B483B000AF786039607B681B78012BA8
:103FF00040F03E813B681B7A03F00203DBB2002BEA
:1040000005D03A68937A43F0800393720BE03A68E4
:10401000937A6FF3C7139372984A92F824306FF330
:10402000C30382F824303B681B7A03F02003DBB221
:10403000002B05D03A68D37A43F00203D37209E02B
:104040003A68D37A6FF34103D3728D4A137E6FF3CC
:10405000820313763B689B7903F00203DBB2002BEB
:1040600005D03A68937A43F0200393720BE03A68E4
:10407000937A6FF345139372804A92F820306FF36E
:10408000C30382F820303B68DB7903F00203DBB224
:10409000002B05D03A68D37A43F00803D37209E0C5
:1040A0003A68D37A6FF3C303D372754A137F6FF301
:1040B000820313773B689B7903F00103DBB2002B8B
:1040C00005D06F4A937E43F00803937604E06C4A70
:1040D000937E6FF3C30393763B68DB7903F00103B0
:1040E000DBB2002B05D0654A937E43F00403937640
:1040F00004E0624A937E6FF3820393763B689B7978
:1041000003F00403DBB2002B05D03A68937A43F046
:104110000203937209E03A68937A6FF34103937252
:10412000564A137E6FF3C30313763B68DB7903F0C3
:104130000403DBB2002B05D03A68937A43F00803FE
:10414000937209E03A68937A6FF3C30393724B4A10
:10415000137F6FF3C30313773B689B7903F010035E
:10416000DBB2002B05D03A68537B43F0080353734E
:1041700009E03A68537B6FF3C3035373404A137FDC
:104180006FF3C30313773B689B7903F02003DBB223
:10419000002B05D03A68537B43F0200353730BE0A8
:1041A0003A68537B6FF345135373354A92F82030C6
:1041B0006FF3C30382F820303B68DB7903F0100310
:1041C000DBB2002B05D03A68137B43F0080313736E
:1041D00009E03A68137B6FF3C3031373274A137F15
:1041E0006FF3820313773B68DB7903F02003DBB2C4
:1041F000002B05D03A68137B43F0200313730BE0C8
:104200003A68137B6FF3451313731C4A92F82030FE
:104210006FF3820382F820303B681B7A03F00403BB
:10422000DBB2002B07D0164A92F8263043F0080381
:1042300082F8263006E0124A92F826306FF3C30364
:1042400082F826303B681B7A03F04003DBB2002B78
:1042500007D00A4A92F8263043F0040382F8263049
:1042600006E0064A92F826306FF3820382F8263081
:1042700000BF0C37BD4680BC704700BF740D0020E6
:104280004C0D002080B582B000AF786039607B684B
:104290001B78012B40F08180424B1B78022B65D0AC
:1042A000022B7ADC002B02D0012B4DD075E03B684D
:1042B000DB7A23F07F03DBB2002B3ED13B68DB7A55
:1042C00003F02003DBB2002B37D13B68DB7A03F02D
:1042D0000803DBB2002B30D13B685B7B03F020038B
:1042E000DBB2002B29D13B685B7B03F00803DBB218
:1042F000002B22D13B681B7B03F02003DBB2002B99
:104300001BD13B681B7B03F00803DBB2002B14D1ED
:104310003B689B7A03F02003DBB2002B0DD13B6896
:104320009B7A03F00803DBB2002B06D13B689B7A33
:1043300003F00203DBB2002B2AD01A4B01221A70C1
:10434000194B00221A7023E00120FDF7D1F9164B1A
:104350001B785A1CD1B2144A1170052B1AD9124B72
:1043600000221A700F4B02221A7013E00020FDF792
:10437000BFF90D4B1B785A1CD1B20B4A1170052B9B
:104380000AD9094B00221A70064B00221A7003E06A
:1043900000BF02E000BF00E000BF00BF0837BD461D
:1043A00080BD00BF780700207907002090B587B056
:1043B00000AF7860FDF730FB03463B61984B1B78FC
:1043C000002B02D0012B14D026E17B684C330A224B
:1043D000002118461BF012F87B684C330ECB914835
:1043E0000BF00FF88E4B1B780133DAB28C4B1A703E
:1043F00012E13B69B3F93C3003F66F133A69B2F945
:104400003A209B1A1846FCF7E3FC034686491846F7
:10441000FCF7E6FD0346FB607B681B6A8349184690
:10442000FCF72AFD0346F9681846FCF725FD03460C
:104430001C463B69B3F93A301846FCF7C9FC034601
:1044400019462046FCF710FC034679491846FCF74C
:104450000BFC03467B6177497869FCF7BFFE034696
:10446000002B01D0734B7B617869FCF707FF034693
:104470009AB27B68A3F850203B69B3F9403003F649
:104480006F133A69B2F93E209B1A1846FCF7A0FC5C
:10449000034665491846FCF7A3FD0346FB607B68AD
:1044A0005B6A62491846FCF7E7FC0346F968184660
:1044B000FCF7E2FC03461C463B69B3F93E30184664
:1044C000FCF786FC034619462046FCF7CDFB034665
:1044D00057491846FCF7C8FB03467B615549786984
:1044E000FCF77CFE0346002B01D0524B7B617869C0
:1044F000FCF7C4FE03469AB27B68A3F84E203B69E2
:10450000B3F9443003F66F133A69B2F942209B1AAB
:104510001846FCF75DFC034643491846FCF760FD6E
:104520000346FB607B689B6A40491846FCF7A4FC85
:104530000346F9681846FCF79FFC03461C463B6996
:10454000B3F942301846FCF743FC034619462046AF
:10455000FCF78AFB034636491846FCF785FB034601
:104560007B6134497869FCF739FE0346002B01D0A2
:10457000304B7B617869FCF781FE03469AB27B6819
:10458000A3F854203B69B3F9483003F66F133A6936
:10459000B2F946209B1A1846FCF71AFC034622493A
:1045A0001846FCF71DFD0346FB607B68DB6A1F496C
:1045B0001846FCF761FC0346F9681846FCF75CFCFA
:1045C00003461C463B69B3F946301846FCF700FC2D
:1045D000034619462046FCF747FB03461449184694
:1045E000FCF742FB03467B6112497869FCF7F6FD54
:1045F0000346002B01D00F4B7B617869FCF73EFE30
:1046000003469AB27B68A3F852207B684C330ECBEA
:1046100004480AF0B2FE00BF00BF1C37BD4690BD83
:104620007A070020F42E002000401C4500002041A5
:104630000000164400F07F4580B584B000AF78607C
:10464000FDF7EAF90346FB60FDF7DCF90346BB60C2
:104650003E493F48FEF76CFA02E0642016F0B6F9D6
:10466000FB681B78002BF8D0FEF7AAFDB968F86844
:10467000FFF7B6FCB968F868FFF7E2FBB968F868BD
:10468000FFF71EFCFB6893F82030002B04D1B968BB
:10469000F868FFF7A1F811E0FB6893F82030012BD0
:1046A00004D1B968F868FFF7EFF807E0B968F8686F
:1046B000FFF792F8B968F868FFF7E6F8F868FEF7D0
:1046C0009FFDF868FEF70AFEB968F868FFF72CFB53
:1046D000B968F868FFF76EFBB968F868FFF72CF95E
:1046E000B968F868FFF724FAB968F868FEF764FE5D
:1046F000B968F868FEF7E4FEB968F868FEF764FF89
:10470000B968F868FEF7E4FFB868FFF719FCB86805
:10471000FFF74CFEFB685B89002B0CD0FB685B89C4
:10472000013B9AB2FB685A81FB685B89002B02D17E
:10473000FB6801229A73B868FEF756FBB968F868FF
:10474000FFF7A0FD642016F041F98FE779470008D4
:104750004817020880B500AF044A0021044816F04B
:104760008BF80346034A136000BF80BD481C020853
:10477000394600084807002080B584B000AF0346E2
:104780003960FB710023FB73FB79012B16D13B6869
:104790001B6811491846FEF743FA0346002B0DD05B
:1047A00005E00E48FEF728FA642016F00FF9FEF730
:1047B0005BFA0346002BF4D10123FB73FB7B83F0F0
:1047C0000103DBB2002B02D00548FEF715FA00BF4B
:1047D0001037BD4680BD00BF5017020858170208A9
:1047E0005C17020890B587B002AF786000237B7336
:1047F000FDF712F90346BB60914B1B78022B00F0CA
:104800000A81022B00F31881002B02D0012B3FD02C
:1048100012E100230193022300930223894A8A496B
:104820008A4809F038FF00230193022300934023B4
:10483000874A8549874809F02EFF00230193022308
:1048400000938023824A8049834809F024FF002393
:104850000193022300934FF480737D4A7A497F4885
:1048600009F019FF0023FB7308E0FB7B7A6813440F
:10487000002283F83020FB7B0133FB73FB7B032B8F
:10488000F3D96F4B1B780133DAB26D4B1A70D3E05A
:104890000023BB7329E0BB7B1B016C4A9818BB7BD0
:1048A00004339B007A681344194609F035FF034628
:1048B0007B737B7B83F00103DBB2002B0CD0BB7BD3
:1048C0007A681A4492F830200132D1B27A681344DF
:1048D0000A4683F8302005E0BB7B7A681344002247
:1048E00083F83020BB7B0133BB73BB7B032BD2D956
:1048F0007B681C69BB6893F925301846FCF768FA99
:10490000034619462046FCF7AFF903461C46BB6830
:10491000B3F92A301846FCF75BFA034650491846AB
:10492000FCF75EFB034619462046FCF79DF903465B
:104930001A467B681A627B685C69BB6893F926300B
:104940001846FCF745FA034619462046FCF78CF951
:1049500003461C46BB68B3F92E301846FCF738FAFC
:1049600003463F491846FCF73BFB034619462046E1
:10497000FCF77AF903461A467B685A627B689C69A1
:10498000BB6893F927301846FCF722FA034619460C
:104990002046FCF769F903461C46BB68B3F9323080
:1049A0001846FCF715FA03462D491846FCF718FB84
:1049B000034619462046FCF757F903461A467B681A
:1049C0009A627B68DC69BB6893F928301846FCF76B
:1049D000FFF9034619462046FCF746F903461C46F4
:1049E000BB68B3F936301846FCF7F2F903461C49A8
:1049F0001846FCF7F5FA034619462046FCF734F949
:104A000003461A467B68DA620D4B1B780133DAB233
:104A10000B4B1A7010E0134B1B780133DAB2114BB9
:104A20001A70104B1B78632B05D90E4B00221A709D
:104A3000034B01221A7000BF00BF1437BD4690BD62
:104A400018080020000C0140602F00208007002083
:104A50000008014090070020A0070020B0070020B8
:104A6000000020411908002080B500AF4FF4FA7211
:104A700000211448FCF7DCFC4FF4FA7201211248C3
:104A8000FCF7D6FC4FF4FA7202211048FCF7D0FC78
:104A90004FF4FA7203210E48FCF7CAFC4FF4FA7285
:104AA00004210C48FCF7C4FC4FF4FA7205210A48B3
:104AB000FCF7BEFC4FF4FA7206210848FCF7B8FC7C
:104AC00000BF80BDC4070020D00700200C080020D4
:104AD000DC070020E8070020F40700200008002081
:104AE00080B582B000AF78600220FCF769FC034615
:104AF00019467A68537961F3000353710320FCF778
:104B00005FFC034619467A68537961F3C303537116
:104B10000420FCF755FC034619467A68537961F383
:104B2000041353710520FCF74BFC034619467A68C1
:104B3000537961F3451353710620FCF741FC03469A
:104B400019467A68537961F38613537140F6B83188
:104B50000C48FCF786FC034619467A68537961F3E2
:104B60004103537140F6B8310748FCF77AFC03461D
:104B700019467A68537961F38203537100BF08378D
:104B8000BD4680BDC4070020D007002080B485B09A
:104B900000AF786039607B681B88FB813B681B88AD
:104BA000BB81FA89BB899A4202D24FF0FF3306E0FB
:104BB000FA89BB899A4201D9012300E000231846F3
:104BC0001437BD4680BC7047B0B584B000AF786084
:104BD000FCF722FF0346BB60614B1B78032B00F2FE
:104BE000B48101A252F823F0F94B00081B4C0008D5
:104BF000674C0008514D00087B685833C8220021DB
:104C000018461AF0FBFB574B00221A70544B1B78C6
:104C10000133DAB2524B1A7097E1524B1B781A46A5
:104C2000514B1B8899B27B682C3223F812104D4BE4
:104C30001B781A464C4B5B8899B27B685E3223F82E
:104C40001210484B1B780133DAB2464B1A70454BB1
:104C50001B78312B40F27881414B1B780133DAB25B
:104C60003F4B1A7070E17B6803F158003F4B022202
:104C7000322119F08AFC7B6803F1BC003B4B022215
:104C8000322119F082FC7B68B3F888301A467B68C1
:104C9000B3F88A3013447A68B2F88C2013447A68E7
:104CA000B2F88E2013441846FBF726FC4FF00002A2
:104CB0002F4BFBF7B5FD02460B46104619464FF049
:104CC00000022C4BFBF7ACFD02460B461046194682
:104CD00021A3D3E90023FBF779FC02460B46796850
:104CE000C1E948237B68B3F8EC301A467B68B3F817
:104CF000EE3013447A68B2F8F02013447A68B2F8C0
:104D0000F22013441846FBF7F7FB4FF00002184B54
:104D1000FBF786FD02460B46104619464FF000028F
:104D2000144BFBF77DFD02460B46104619460AA3BD
:104D3000D3E90023FBF74AFC02460B467968C1E938
:104D40004A23074B1B780133DAB2054B1A70FCE09B
:104D50000023FB7355E000BF6666666666660A4020
:104D60001A0800201B080020C00700208D4B0008F7
:104D7000000010400000B040FB7B7A682433DB0069
:104D80001344D3E9000174A3D3E90023FBF71EFC0D
:104D900002460B4610461946FB7B7A682433DB003B
:104DA0001344D3E90023FBF711FC02460B461446DB
:104DB0001D46FB7B7A682433DB001344D3E90001F2
:104DC00067A3D3E90023FBF701FC02460B4620460C
:104DD0002946FBF745FA02460B4610461946FC7B6E
:104DE00061A3D3E90023FBF73BFA02460B46786840
:104DF00004F12601C9000144C1E90023FB7B013312
:104E0000FB73FB7B012BB7D97B68D3E94C014FF0D7
:104E10000002574BFBF7DAFB02460B4610461946D9
:104E20004FF00002534BFBF719FA02460B461446AB
:104E30001D46BB68B3F84A301846FBF74DFB4FF0F0
:104E400000024D4BFBF7ECFC02460B462046294680
:104E5000FBF7BCFB02460B467968C1E950237B682F
:104E6000D3E950014FF00002434BFBF7AFFB024682
:104E70000B4614461D46BB68B3F94C301846FBF789
:104E80003BFB02460B4620462946FBF7E9F9024662
:104E90000B4610461946FBF771FE03469AB27B6833
:104EA000A3F850217B68D3E94E014FF00002304B4C
:104EB000FBF78CFB02460B46104619464FF00002EA
:104EC0002C4BFBF7CBF902460B4614461D46BB683C
:104ED000B3F85A301846FBF7FFFA4FF00002264BA2
:104EE000FBF79EFC02460B4620462946FBF76EFB6D
:104EF00002460B467968C1E952237B68D3E9520127
:104F00004FF000021C4BFBF761FB02460B461446B8
:104F10001D46BB68B3F95C301846FBF7EDFA024654
:104F20000B4620462946FBF79BF902460B461046E6
:104F30001946FBF723FE03469AB27B68A3F8522179
:104F40000E4B00221A7000E000BF00BF1037BD46B4
:104F5000B0BD00BFAFF30080CD3B4ED1915CDE3FD2
:104F60005917B7D1005E204012A5BDC11726D73F03
:104F70000000B03F0000D03F000059401A08002058
:104F800080B584B000AF7860FCF73CFD0346FB6061
:104F9000FFF76AFD0C480CF019FA02220B490A4887
:104FA0000BF020FF0A490B48FDF7C2FDF868FFF738
:104FB00097FDF868FFF716FCF868FFF705FE01207B
:104FC00015F004FD00BFF1E7282E0020C0070020E7
:104FD000FD4F00087C17020880B500AF044A00218D
:104FE000044815F049FC0346034A136000BF80BD26
:104FF0006C1C0208814F00087C07002080B584B03B
:1050000000AF03463960FB710023FB73FB79012B72
:1050100016D13B681B6811491846FDF701FE03468F
:10502000002B0DD005E00E48FDF7E6FD142015F02D
:10503000CDFCFDF719FE0346002BF4D10123FB73D1
:10504000FB7B83F00103DBB2002B02D00548FDF7A8
:10505000D3FD00BF1037BD4680BD00BF84170208D6
:105060008C1702089017020880B483B000AF7860F4
:1050700039607B68DB6B1B685B689AB23B689A801F
:105080003B689B889BB2C3F500735A42C3F3080385
:10509000C2F3080258BF53429AB23B68DA803B68B9
:1050A000DB889BB201339AB23B681A813B68DB888C
:1050B0009BB203F500733A68528892B29B1A5A4227
:1050C000C3F30803C2F3080258BF53429AB23B68C5
:1050D0005A813B685B78012B0FD03B68DB889AB222
:1050E0003B685B889BB29A4207D03B6801225A70AA
:1050F0003B6800221A7300225A733B685B78012BCD
:1051000006D13B689B899BB201339AB23B689A8176
:105110003B689B899BB2642B11D93B68DB889AB2B0
:105120003B685A803B6800225A703B6800229A72A2
:105130000022DA723B6800221A7300225A733B681D
:105140005B7818460C37BD4680BC704780B485B08C
:1051500000AF7860396000237B734FF6FF73FB81EB
:1051600011E07B685A1C7A601A78FB89DBB25340E5
:105170007B73FB891B0AFB817B7B084A32F8132077
:10518000FB895340FB813B685A1E3A60002BE8D1F3
:10519000FB8918461437BD4680BC7047B41C020812
:1051A00080B485B000AFF860B9607A60FA68BB6817
:1051B0009A4205DBFA687B689A4201DC012300E031
:1051C000002318461437BD4680BC704780B5ADF546
:1051D000067D00AF07F50673A3F50573186007F5A4
:1051E0000673A3F506731960FCF716FC0346C7F8AF
:1051F0000C320023A7F814320023C7F81032002322
:10520000A7F816320CE0B7F8163207F50672A2F5C9
:1052100003720021D154B7F816320133A7F81632C1
:10522000B7F81632B3F5007FEDD307F50673A3F593
:1052300005731B6800221A7007F50673A3F5057342
:105240001B6800225A7007F50673A3F505731B68E7
:1052500000229A700022DA7007F50673A3F5057331
:105260001B6800221A7100225A7107F50673A3F514
:1052700005731B6800229A7107F50673A3F5057381
:105280001B680022DA7100221A720023A7F8163276
:105290000EE0B7F8163207F50672A2F5057212682D
:1052A000134400225A72B7F816320133A7F81632A7
:1052B000B7F81632B3F5827FEBD307F50673A3F583
:1052C00006731B685B899BB2072B40F2CD810023DC
:1052D000A7F816321FE007F50673A3F506731B68DF
:1052E0005B889AB2B7F8163213449BB2C3F3080234
:1052F000B7F8163207F50671A1F5067109680A4478
:10530000917B07F50672A2F50372D154B7F81632F5
:105310000133A7F8163207F50673A3F506731B6869
:105320005B899BB2B7F816229A42D4D3D7F80C32D5
:1053300093F8212007F50673A3F503731B789A42AF
:1053400001D002239CE107F50673A3F503731A78D5
:1053500007F50673A3F505731B681A7007F5067346
:10536000A3F503735A7807F50673A3F505731B6855
:105370005A7007F50673A3F503739B781B029BB263
:1053800007F50672A2F50372D27813449AB207F5B4
:105390000673A3F505731B685A8007F50673A3F51A
:1053A00005731B685B78102B00F08C80102B00F3CA
:1053B0002E81042B02DC032B03DA28E1062B4CD0D0
:1053C00025E107F50673A3F503731B791B029BB256
:1053D00007F50672A2F50372527913449AB207F5E3
:1053E0000673A3F505731B689A8007F50673A3F58A
:1053F00005731B689B889BB2002B08D107F50673C9
:10540000A3F505731B689B889BB27D2B21D807F5FC
:105410000673A3F50373DB791B029BB207F50672D3
:10542000A2F50372927913449AB207F50673A3F5B5
:1054300005731B68A3F8072007F10C030621184623
:10544000FFF784FE0346A7F814320023C7F8103292
:10545000E1E00323C7F81032DDE007F50673A3F59A
:1054600003731A7907F50673A3F505731B685A725F
:1054700007F50673A3F503735A7907F50673A3F5C9
:1054800005731B689A7207F50673A3F50373DB793E
:105490001B029BB207F50672A2F5037292791344C0
:1054A0009AB207F50673A3F505731B68A3F80720E6
:1054B00007F10C0306211846FFF748FE0346A7F83C
:1054C0001432A8E007F50673A3F503731B791B02DA
:1054D0009BB207F50672A2F50372527913449AB291
:1054E00007F50673A3F505731B689A8007F5067325
:1054F000A3F505731B689B889BB2002B08D107F5A9
:105500000673A3F505731B689B889BB27B2B79D828
:1055100007F50673A3F503739A7907F50673A3F5E8
:1055200005731B689A7107F50673A3F506731B686C
:105530005B899BB21A4607F50673A3F505731B68D2
:105540009B7909339A4259D30023A7F8163216E003
:10555000B7F81632DA1DB7F8163207F50671A1F55D
:105560000371895C07F50672A2F50572126813448F
:105570000A465A72B7F816320133A7F8163207F501
:105580000673A3F505731B689B791A46B7F81632A4
:105590009342DDD307F50673A3F505731B689B796A
:1055A000083307F50672A2F50372D35C1B029BB2A7
:1055B00007F50672A2F5057212689279073207F5AF
:1055C0000671A1F503718A5C13449AB207F506735C
:1055D000A3F505731B68A3F8072007F50673A3F569
:1055E00005731B689B79DA1D07F10C0311461846F9
:1055F000FFF7ACFD0346A7F8143207E00323C7F812
:10560000103203E00323C7F8103204E003E0FF2365
:10561000C7F8103200BFD7F81032002B2ED107F593
:105620000673A3F506731B68DB889AB207F5067349
:10563000A3F506731B685A8007F50673A3F5067376
:105640001B6800225A7007F50673A3F505731B68E3
:10565000B3F807309BB2B7F814229A420ED04FF03D
:10566000FF33C7F8103209E007F50673A3F5067398
:105670001B6800225A70FF23C7F81032D7F8103287
:10568000184607F50677BD4680BD000080B58CB092
:1056900000AFF860B9607A60FCF7BEF903463B6280
:1056A000FCF7B0F90346FB610023FB6200237B8318
:1056B00000237B85002387F82930002387F82830D2
:1056C000002387F82730002387F82630002387F847
:1056D00025300023FB627B685B78102B00F0D087BD
:1056E000102B01F3F286042B03DC032B05DA01F007
:1056F000ECBE062B7BD001F0E8BE7B685B889AB2DB
:10570000BB68B3F898309A421DD37B685B889AB225
:10571000BB68B3F89A309A4215D87B689B889AB2D6
:10572000BB68B3F896309A420DD8BB68FB627B68C1
:105730005B889BB21A46BB68B3F89830D31A5B00FB
:10574000FA6A1344FB627B681A78FB681A707B68FC
:105750005A78FB685A707B689B889BB2DBB25B000F
:10576000DAB2FB689A7000237B8517E0FB6A1B881E
:105770001B0A9AB27B8D5B000333D1B2FA68D15415
:10578000FB6A1A887B8D02335B00D1B2FA68D15470
:10579000FB6A0233FB627B8D01337B857B689B88D0
:1057A0009BB27A8D9A42E1D3FA68FB689B78033307
:1057B00019461046FFF7CAFC03467B83FB689B78BB
:1057C00003337A8BD1B2FA68D1547B8B1B0A9AB21D
:1057D000FB689B780433D1B2FA68D154FB689B789C
:1057E00005339AB2FB68A3F8002201F06FBE7B6814
:1057F0005B889AB2BB68B3F898309A421DD37B6835
:105800005B889AB2BB68B3F89A309A4215D87B6825
:105810009B889AB2BB68B3F896309A420DD8BB68A1
:10582000FB627B685B889BB21A46BB68B3F8983012
:10583000D31A5B00FA6A1344FB627B8D5B007A68C3
:1058400013445B7A1B029BB27A8D52000132796855
:105850000A44527A13439AB2FB6A1A80B24BDB783D
:105860003B74B14B5B787B74AF4B1B780133DBB27D
:10587000FB74AD4B9B78BB74AC4B1B783B75AB4B4F
:105880005B787B75A94B9B78BB757B685B889BB20B
:105890001A46BB68B3F898300E339A4213D1BB68EE
:1058A0009B8B632200211846FFF77AFC0346002BEE
:1058B00000F08486BB689B8BDBB23B74012387F8C6
:1058C000253000F07BBE7B685B889BB21A46BB68C4
:1058D000B3F898300F339A4213D1BB68DB8B0C229C
:1058E00001211846FFF75CFC0346002B00F066869A
:1058F000BB68DB8BDBB27B74012387F8253000F0BB
:105900005DBE7B685B889BB21A46BB68B3F8983073
:1059100010339A4213D1BB681B8C07220121184611
:10592000FFF73EFC0346002B00F04886BB681B8C4B
:10593000DBB2FB74012387F8253000F03FBE7B68A3
:105940005B889BB21A46BB68B3F8983011339A4211
:1059500013D1BB685B8C1F2201211846FFF720FC86
:105960000346002B00F02A86BB685B8CDBB2BB745D
:10597000012387F8253000F021BE7B685B889BB24D
:105980001A46BB68B3F8983012339A4213D1BB68F9
:105990009B8C172200211846FFF702FC0346002BC0
:1059A00000F00C86BB689B8CDBB23B75012387F84B
:1059B000253000F003BE7B685B889BB21A46BB684B
:1059C000B3F8983013339A4213D1BB68DB8C3B2277
:1059D00000211846FFF7E4FB0346002B00F0EE859C
:1059E000BB68DB8CDBB27B75012387F8253000F0C8
:1059F000E5BD7B685B889BB21A46BB68B3F89830FC
:105A000014339A4213D1BB681B8D3B2200211846E8
:105A1000FFF7C6FB0346002B00F0D085BB681B8D4B
:105A2000DBB2BB75012387F8253000F0C7BD7B686A
:105A30005B889BB21A46BB68B3F8983015339A421C
:105A400014D1BB68B3F92A30FA2200211846FFF7B7
:105A5000A7FB0346002B00F0B185BB68B3F92A20F1
:105A60003B6A1A82FBF7E2FF00F0A8BD7B685B8807
:105A70009BB21A46BB68B3F8983016339A4214D1D9
:105A8000BB68B3F92C30FA2200211846FFF788FBD7
:105A90000346002B00F09285BB68B3F92C203B6ACB
:105AA0005A82FBF7C3FF00F089BD7B685B889BB21D
:105AB0001A46BB68B3F8983017339A4214D1BB68C2
:105AC000B3F92E30FA2200211846FFF769FB03468E
:105AD000002B00F07385BB68B3F92E203B6A9A82D5
